:100000000C9435000C945D000C945D000C9432014E
:100010000C9432010C9432010C945D000C945D0040
:100020000C945D000C945D000C945D000C945D00DC
:100030000C945D000C945D000C945D000C945D00CC
:100040000C9470020C945D000C94A3040C94D504E1
:100050000C945D000C945D000C945D000C945D00AC
:100060000C945D000C945D00050511241FBECFEFBC
:10007000D8E0DEBFCDBF11E0A0E0B1E0E4E5FCE0F8
:1000800002C005900D92AA3AB107D9F722E0AAEA78
:10009000B1E001C01D92A33DB207E1F710E0CAE64E
:1000A000D0E004C02297FE010E942406C836D10782
:1000B000C9F70E9449050C9428060C94000040EDF5
:1000C00057E060E070E086EF91E00E94D70120E801
:1000D00035E240E050E066E372E086EF91E00E9496
:1000E000EA0186EF91E00E94D40166E071E0809120
:1000F0002702909128020E9496056AE070E080E055
:1001000090E00E94E90241E060E086EF91E00E9409
:10011000550226E040E855E260E070E086E392E0B8
:100120000E94410486E392E00C949805CF92DF92FE
:10013000EF92FF920F931F930E94BA02672B682BD6
:10014000692B41F40E94BA02623071058105910564
:1001500008F476C00E94BA026093AA017093AB01C2
:100160008093AC019093AD010091AE011091AF016D
:100170002091B0013091B101601771078207930798
:1001800040F46093AE017093AF018093B0019093FF
:10019000B1010091AE011091AF012091B0013091F9
:1001A000B1016B017C01C01AD10AE20AF30A97017E
:1001B00086010A3F11052105310508F441C060930D
:1001C000AE017093AF018093B0019093B10186EFBF
:1001D00091E00E94D40168E171E080912702909142
:1001E00028020E94960560E271E0809127029091BA
:1001F00028020E9496050E94BA02AB01BC012AE0C7
:1002000030E080912702909128020E94EB0562E283
:1002100071E080912702909128020E94960562E089
:1002200070E080E090E00E94E9026AE070E080E027
:1002300090E00E94E90261E086EF91E00E941702DF
:100240006BE271E086E392E00E94960568EE73E04F
:1002500080E090E01F910F91FF90EF90DF90CF90A2
:100260000C94E9021F920F920FB60F9211242F9354
:100270003F934F935F936F937F938F939F93AF932E
:10028000BF93EF93FF93E091F401F091F501309764
:1002900009F451C0868DA685B785958581FF04C078
:1002A0008C91892329F447C08C91892309F043C09C
:1002B000A389B4899C918589809589238C938689AB
:1002C00097890197F1F7208D318DA685B7857585C2
:1002D00058E040E0C9010197F1F7842F90E095952F
:1002E0008795482F6C91672309F04068515091F72A
:1002F000868D81FD40958091B30190E001968F73CA
:1003000099272091B201281749F0A091B301B0E0DC
:10031000AC54BE4F4C938093B30103C0868D816073
:10032000868F828D938D0197F1F7A389B4898C9183
:100330009589892B8C93FF91EF91BF91AF919F91FC
:100340008F917F916F915F914F913F912F910F907E
:100350000FBE0F901F9018950F931F93CF93DF93AD
:10036000EC01662359F00E94BA0269837A838B8379
:100370009C83DF91CF911F910F9108950E94BA0243
:1003800009811A812B813C81601B710B820B930BBD
:10039000613271058105910530F763E070E080E01E
:1003A00090E00E94E902EACF60E00C94AC01FC010D
:1003B00013AA14AA15AA16AA1182128213821482F1
:1003C000411551056105710521F0CB01BA010C946D
:1003D000E9020895FB01BA01A901DC01D296FC9360
:1003E000EE93D19726E0CF010C9441041F93CF9355
:1003F000DF93EC01162F64E371E089A99AA90E94AA
:1004000096054AE050E0612F89A99AA90E94F80553
:100410006BE371E089A99AA90E94960562E370E0F6
:1004200080E090E0DF91CF911F910C94E9021F933F
:10043000CF93DF93EC01162F8D81882389F189A951
:100440009AA9DC01ED91FC910480F581E02D0995DC
:10045000892BA9F307C02637310519F12835310555
:1004600009F41D8289A99AA9DC01ED91FC9104800F
:10047000F581E02D09951816190694F489A99AA911
:10048000DC01ED91FC910680F781E02D09959C013E
:10049000332723363105F9F6612FCE010E94F6018C
:1004A00083E6DF91CF911F9108950F931F93CF9310
:1004B000DF931F92CDB7DEB78C01662349F081E050
:1004C000F801858360E0C80149830E9417024981D1
:1004D000F80145830F90DF91CF911F910F910895FF
:1004E0001F920F920FB60F9211242F933F938F9369
:1004F0009F93AF93BF9380912E0290912F02A09172
:100500003002B091310230912D0223E0230F2D37BC
:1005100020F40196A11DB11D05C026E8230F029607
:10052000A11DB11D20932D0280932E0290932F02C6
:10053000A0933002B0933102809132029091330245
:10054000A0913402B09135020196A11DB11D809396
:10055000320290933302A0933402B0933502BF91DC
:10056000AF919F918F913F912F910F900FBE0F9060
:100570001F9018952FB7F89460912E0270912F025A
:1005800080913002909131022FBF08953FB7F894C7
:100590008091320290913302A0913402B0913502E1
:1005A00026B5A89B05C02F3F19F00196A11DB11DCE
:1005B0003FBF6627782F892F9A2F620F711D811DEB
:1005C000911D42E0660F771F881F991F4A95D1F74A
:1005D00008958F929F92AF92BF92CF92DF92EF9247
:1005E000FF926B017C010E94C6024B015C01C114A9
:1005F000D104E104F104F1F00E94FF050E94C6025B
:10060000681979098A099B09683E7340810591053B
:1006100070F321E0C21AD108E108F10888EE880ED3
:1006200083E0981EA11CB11CC114D104E104F104A3
:1006300029F7DDCFFF90EF90DF90CF90BF90AF9084
:100640009F908F900895789484B5826084BD84B51E
:10065000816084BD85B5826085BD85B5816085BDBD
:10066000EEE6F0E0808181608083E1E8F0E01082D6
:10067000808182608083808181608083E0E8F0E017
:10068000808181608083E1EBF0E080818460808301
:10069000E0EBF0E0808181608083EAE7F0E0808138
:1006A0008460808380818260808380818160808398
:1006B0008081806880831092C1000895FC01818D43
:1006C000228D90E0805C9F4F821B91098F73992748
:1006D0000895FC01918D828D981731F0828DE80F7D
:1006E000F11D858D90E008958FEF9FEF0895FC0137
:1006F000918D828D981761F0828DDF01A80FB11D59
:100700005D968C91928D9F5F9F73928F90E008957C
:100710008FEF9FEF08958BEF94E0892B49F080E0F5
:1007200090E0892B29F00E94FB0481110C940000B9
:100730000895FC01848DDF01A80FB11DA35ABF4F9E
:100740002C91848D90E001968F739927848FA689D0
:10075000B7892C93A089B1898C9180648C93938DF7
:10076000848D981306C00288F389E02D80818F7DE7
:1007700080830895CF93DF93EC01888D8823C9F09F
:10078000EA89FB89808185FD05C0A889B9898C919A
:1007900086FD0FC00FB607FCF5CF808185FFF2CF35
:1007A000A889B9898C9185FFEDCFCE010E9499036C
:1007B000E7CFDF91CF910895CF92DF92FF920F9311
:1007C0001F93CF93DF931F92CDB7DEB76C0181E00B
:1007D000D60158968C9358975B969C915B975C9644
:1007E0008C915C97981307C05096ED91FC915197AE
:1007F000808185FD2EC0F601038D10E00F5F1F4F35
:100800000F731127F02EF601848DF81211C00FB668
:1008100007FCF9CFD6015096ED91FC91519780815C
:1008200085FFF1CFC60169830E9499036981EBCFEF
:10083000838DE80FF11DE35AFF4F6083D6015B966D
:100840000C935B975296ED91FC9153978081806257
:100850000CC0D6015696ED91FC9157976083509647
:10086000ED91FC91519780818064808381E090E0DC
:100870000F90DF91CF911F910F91FF90DF90CF905C
:100880000895BF92CF92DF92EF92FF92CF93DF93C2
:10089000EC016A017B01B22EE889F98982E080834C
:1008A000411581EE580761057105A1F060E079E01E
:1008B0008DE390E0A70196010E94000621503109C6
:1008C000410951095695479537952795211580E19E
:1008D000380798F0E889F989108260E874E88EE1B9
:1008E00090E0A70196010E940006215031094109BC
:1008F00051095695479537952795EC85FD853083A9
:10090000EE85FF852083188EEC89FD89B082EA8907
:10091000FB89808180618083EA89FB89808188608E
:100920008083EA89FB89808180688083EA89FB89EA
:1009300080818F7D8083DF91CF91FF90EF90DF905A
:10094000CF90BF9008951F920F920FB60F9211246F
:100950002F938F939F93EF93FF93E0914602F09133
:1009600047028081E0914C02F0914D0282FD12C05D
:10097000908180914F028F5F8F7320915002821778
:1009800051F0E0914F02F0E0EA5CFD4F958F8093CB
:100990004F0201C08081FF91EF919F918F912F9124
:1009A0000F900FBE0F901F9018951F920F920FB6C9
:1009B0000F9211242F933F934F935F936F937F93E5
:1009C0008F939F93AF93BF93EF93FF9386E392E050
:1009D0000E949903FF91EF91BF91AF919F918F91E9
:1009E0007F916F915F914F913F912F910F900FBE2B
:1009F0000F901F90189586E392E00E945E0321E01D
:100A0000892B09F420E0822F089510923902109268
:100A1000380288EE93E0A0E0B0E080933A02909331
:100A20003B02A0933C02B0933D0280E991E0909399
:100A300037028093360285EC90E0909343028093D6
:100A4000420284EC90E0909345028093440280EC53
:100A500090E0909347028093460281EC90E090935F
:100A600049028093480282EC90E090934B0280937D
:100A70004A0286EC90E090934D0280934C021092D3
:100A80004F02109250021092510210925202089599
:100A900008950E9423030E9448050E945F00CBE84E
:100AA000D3E00E9496002097E1F30E948B03F9CFD8
:100AB000CF92DF92EF92FF920F931F93CF93DF932A
:100AC0007C016A01EB0100E010E00C151D0571F0DE
:100AD0006991D701ED91FC910190F081E02DC70162
:100AE0000995892B19F00F5F1F4FEFCFC801DF91D8
:100AF000CF911F910F91FF90EF90DF90CF900895CD
:100B00006115710581F0DB010D900020E9F7AD0161
:100B100041505109461B570BDC01ED91FC910280BD
:100B2000F381E02D099480E090E008950C94800515
:100B300061E471E00C9480058F929F92AF92BF9216
:100B4000DF92EF92FF920F931F93CF93DF93CDB776
:100B5000DEB7A1970FB6F894DEBF0FBECDBF7C0104
:100B6000F42FD52ECB0119A2223008F42AE08E01F1
:100B70000F5D1F4F822E912CA12CB12C6F2F7D2D3C
:100B8000A50194010E940006F22FD32ECA01015044
:100B900011096A3014F4E0E301C0E7E3E60FD8017D
:100BA000EC93232B242B252B49F7B801C7010E9476
:100BB0008005A1960FB6F894DEBF0FBECDBFDF91C2
:100BC000CF911F910F91FF90EF90DF90BF90AF906A
:100BD0009F908F9008952115310541F4DC01ED912E
:100BE000FC910190F081E02D642F09940C949C05F8
:100BF0009A01462F50E060E070E00C94EB050895F8
:100C0000A1E21A2EAA1BBB1BFD010DC0AA1FBB1F10
:100C1000EE1FFF1FA217B307E407F50720F0A21B82
:100C2000B30BE40BF50B661F771F881F991F1A94EF
:100C300069F760957095809590959B01AC01BD0119
:100C4000CF010895EE0FFF1F0590F491E02D099458
:040C5000F894FFCF46
:100C54000000D3028000564D4450565F317C315F12
:100C6400564D4450560D0A00564D4450455F3100D0
:100C74007C005F564D4450450D0A0068656C6C6FEE
:100C840058585800564D4450435F005F564D4450E9
:100C9400430D0A004572726F723A20417474656D97
:100CA400707420746F2073657420612072656164B0
:100CB4002D6F6E6C79207661726961626C65206F4C
:100CC4007220646174612074797065206E6F742081
:100CD400737570706F727465640D0A000000000013
:100CE400DC0358055E0377036903BA036E616E0083
:0A0CF400696E66006F7666002E0040
:00000001FF
