:100000000C9458000C9480000C9480000C94800098
:100010000C9480000C9480000C9480000C94800060
:100020000C9480000C9480000C9480000C94800050
:100030000C9480000C9480000C9480000C94800040
:100040000C9442050C9480000C9410050C94EA0466
:100050000C9480000C9480000C9480000C94800020
:100060000C948C050C9480000000000025002800F2
:100070002B00040404040404040402020202020229
:10008000030303030303010204081020408001025C
:1000900004081020010204081020000000080002DB
:1000A0000100000304070000000000000000BA0681
:1000B00011241FBECFEFD8E0DEBFCDBF11E0A0E01E
:1000C000B1E0E0E4F4E102C005900D92A833B1077D
:1000D000D9F722E0A8E3B1E001C01D92AB3BB20723
:1000E000E1F710E0C8E5D0E004C02197FE010E94CE
:1000F000D507C735D107C9F70E94F3060C941E0A2D
:100100000C940000EEE0F2E0A089B18982E08C93CB
:10011000A485B5851C92A685B7858FEC8C93108E2F
:10012000A489B58986E08C93A289B3898C9180617A
:100130008C93A289B3898C9188608C93A289B389AE
:100140008C9180688C930288F389E02D80818F7D6B
:100150008083089590E0FC01E656FF4F2491FC0156
:10016000EA57FF4F3491FC01EE58FF4FE491EE2324
:10017000B1F1222339F1233091F038F42130A9F084
:10018000223001F584B58F7D12C0273091F02830E0
:10019000A1F02430B9F4809180008F7D03C080915C
:1001A00080008F77809380000DC084B58F7784BDE9
:1001B00009C08091B0008F7703C08091B0008F7D1F
:1001C0008093B000F0E0EE0FFF1FE859FF4FA591BC
:1001D000B4918FB7F894EC913E2B3C938FBF089568
:1001E0000895CF92DF92EF92FF920F931F93CF93D8
:1001F000DF936C017A018B01C0E0D0E0CE15DF0502
:1002000089F0D8016D918D01D601ED91FC9101909D
:10021000F081E02DC6010995892B11F47E0102C001
:100220002196ECCFC701DF91CF911F910F91FF90E5
:10023000EF90DF90CF900895E0915801F09159012F
:10024000309729F01092CE011092CD0109940895B3
:10025000CF93DF93AC01E091D501F091D6013097B7
:10026000F1F09091D0018091CF019817C0F090E00B
:10027000292F30E02617370754F4D901A85CBE4F68
:10028000EA01C20FD31F88818C939F5FF1CF109238
:10029000D0016093CF01CB01DF91CF910994DF9121
:1002A000CF910895FC01918D828D981761F0828D18
:1002B000DF01A80FB11D5D968C91928D9F5F9F739A
:1002C000928F90E008958FEF9FEF0895FC01918D3C
:1002D000828D981731F0828DE80FF11D858D90E0A9
:1002E00008958FEF9FEF0895FC01918D228D892F46
:1002F00090E0805C9F4F821B91098F73992708952E
:100300008EE092E00E94740121E0892B09F420E044
:10031000822F0895FC01848DDF01A80FB11DA35A1F
:10032000BF4F2C91848D90E001968F739927848F15
:10033000A689B7892C93A089B1898C9180648C930C
:10034000938D848D981306C00288F389E02D8081F7
:100350008F7D80830895EF92FF920F931F93CF9329
:10036000DF93EC0181E0888F9B8D8C8D981305C005
:10037000E889F989808185FD24C0F62E0B8D10E077
:100380000F5F1F4F0F731127E02E8C8DE8120CC0EA
:100390000FB607FCFACFE889F989808185FFF5CF90
:1003A000CE010E948A01F1CF8B8DFE01E80FF11D75
:1003B000E35AFF4FF0820B8FEA89FB8980818062CC
:1003C00007C0EE89FF896083E889F98980818064AC
:1003D000808381E090E0DF91CF911F910F91FF909A
:1003E000EF900895CF93DF93EC01888D8823C9F0B7
:1003F000EA89FB89808185FD05C0A889B9898C912E
:1004000086FD0FC00FB607FCF5CF808185FFF2CFC8
:10041000A889B9898C9185FFEDCFCE010E948A0110
:10042000E7CFDF91CF91089580E090E0892B29F00C
:100430000E94800181110C94000008953FB7F89448
:100440008091C6019091C701A091C801B091C901E6
:1004500026B5A89B05C02F3F19F00196A11DB11D1F
:100460003FBFBA2FA92F982F8827820F911DA11D5A
:10047000B11DBC01CD0142E0660F771F881F991F97
:100480004A95D1F708958F929F92AF92BF92CF92E3
:10049000DF92EF92FF926B017C010E941E024B01E2
:1004A0005C01C114D104E104F104F1F00E941E02C8
:1004B000DC01CB0188199909AA09BB09883E934040
:1004C000A105B10570F321E0C21AD108E108F108D5
:1004D00088EE880E83E0981EA11CB11CC114D104C3
:1004E000E104F10419F7DDCFFF90EF90DF90CF909A
:1004F000BF90AF909F908F9008952FB7F894609120
:10050000C2017091C3018091C4019091C5012FBFB8
:10051000089585ED8093BC008091BC0084FDFCCFE4
:100520001092CC01089540917A01262F30E0240FDB
:10053000311D21323105DCF42091CC012430C9F485
:10054000FC0180E090E0861758F430917A01219107
:10055000DC01A65ABE4FA30FB11D2C930196F3CF19
:1005600080917A01680F60937A0180E0089581E0BC
:10057000089582E008950895E091D0018091CF011F
:10058000E81730F4F0E0E85CFE4F808190E00895D9
:100590008FEF9FEF08959091D0018091CF01981730
:1005A00050F4E92FF0E0E85CFE4F208130E09F5FDF
:1005B0009093D00102C02FEF3FEFC90108958091C1
:1005C000CF0190E02091D001821B91090895CF9333
:1005D000DF9300D0CDB7DEB7CB01642F49835A83B8
:1005E0000E9493024981842F5A81952F0F900F907A
:1005F000DF91CF910895CF93DF931F92CDB7DEB7F0
:10060000698361E0CE0101960E94930281E090E04F
:100610000F90DF91CF910895EF92FF920F931F9368
:10062000CF93DF93EC017B018A0188819981009748
:1006300029F02A813B8124173507F8F4B8016F5F50
:100640007F4F0E940809009759F0998388831B8384
:100650000A832C813D81232B81F4FC0110820DC083
:1006600088819981009711F00E9470081982188280
:100670001D821C821B821A8207C01D830C83B70156
:10068000888199810E94E009CE01DF91CF911F916D
:100690000F91FF90EF9008954F925F926F927F922B
:1006A000AF92BF92CF92DF92EF92FF920F931F9380
:1006B000CF93DF93CDB7DEB7CC50D2400FB6F894CE
:1006C000DEBF0FBECDBF7C018E010F5F1F4F5801F3
:1006D000A80EB91E68010A151B0599F10E947D023A
:1006E0006093B3027093B4028093B5029093B60204
:1006F000E091AB02F091AC020680F781E02D8BEA2D
:1007000092E0099597FF62C00E947D024090B3027B
:100710005090B4026090B5027090B602DC01CB013B
:1007200084199509A609B7094090AF025090B0020C
:100730006090B1027090B20284159505A605B705C8
:10074000B8F2C95FDD4F19821882C750D240C75F27
:10075000DD4F19821882C950D240C55FDD4F198222
:100760001882CB50D240F60101900020E9F7319772
:10077000AF014C195D09B601CE01895F9D4F0E9402
:100780000C03CF5FDD4F19821882C150D240CD5F7C
:10079000DD4F19821882C350D240CB5FDD4F1982E2
:1007A0001882C550D24040E050E067E371E0CE01CE
:1007B0008F5F9D4F0E940C03C55FDD4F28813981FB
:1007C000CB50D2402115310529F450C0F801819356
:1007D0008F0181CF87012E153F0508F48901C95F7C
:1007E000DD4FE881F981C750D240E00FF11FF08062
:1007F0001082C95FDD4F68817981C750D240611591
:10080000710571F0FB0101900020E9F73197AF010C
:10081000461B570BCE018F5F9D4F0E940C031CC0DF
:10082000CF5FDD4F88819981C150D240009711F090
:100830000E947008CF5FDD4F19821882C150D240EC
:10084000CB5FDD4F19821882C550D240CD5FDD4F9E
:1008500019821882C350D240C95FDD4F88819981C7
:10086000C750D240FC01E00FF11FF082C95FDD4F9D
:1008700088819981C750D240009749F1CF5FDD4F01
:1008800068817981C150D24061157105F1F0C75F6F
:10089000DD4F48815981C950D240CB5FDD4F28815F
:1008A0003981C550D2404217530778F00E94E009C1
:1008B000CB5FDD4F88819981C550D240C55FDD4F48
:1008C00099838883CB50D24032C00E947008CF5F9A
:1008D000DD4F88819981C150D240C95FDD4F998336
:1008E0008883C750D240CD5FDD4F88819981C35046
:1008F000D240C75FDD4F99838883C950D240CB5F18
:10090000DD4F88819981C550D240C55FDD4F998305
:100910008883CB50D240CF5FDD4F19821882C150FF
:10092000D240CD5FDD4F19821882C350D240CB5FD9
:10093000DD4F19821882C550D240CF5FDD4F8881CC
:100940009981C150D2400E947008C55FDD4F488137
:100950005981CB50D240C95FDD4F68817981C75042
:10096000D2408EE092E00E94F10042E050E065E368
:1009700071E08EE092E00E94F100C95FDD4F888156
:100980009981C750D2400E947008C45FDD4F0FB6F6
:10099000F894DEBF0FBECDBFDF91CF911F910F91B5
:1009A000FF90EF90DF90CF90BF90AF907F906F90CF
:1009B0005F904F9008952091CF0130E04091D00199
:1009C000241B31091216130614F40C944C030895D9
:1009D0000E94D2091F920F920FB60F9211242F93EB
:1009E0003F934F935F936F937F938F939F93AF93B7
:1009F000BF93EF93FF938EE092E00E948A01FF91F4
:100A0000EF91BF91AF919F918F917F916F915F9186
:100A10004F913F912F910F900FBE0F901F901895FF
:100A20001F920F920FB60F9211242F938F939F93C3
:100A3000EF93FF93E0911E02F0911F028081E091FD
:100A40002402F091250282FD12C09081809127023C
:100A50008F5F8F7320912802821751F0E091270257
:100A6000F0E0E25FFD4F958F8093270201C0808107
:100A7000FF91EF919F918F912F910F900FBE0F904B
:100A80001F9018951F920F920FB60F9211242F935B
:100A90003F938F939F93AF93BF938091C2019091A7
:100AA000C301A091C401B091C5013091C10123E0FF
:100AB000230F2D3720F40196A11DB11D05C026E896
:100AC000230F0296A11DB11D2093C1018093C20185
:100AD0009093C301A093C401B093C5018091C60156
:100AE0009091C701A091C801B091C9010196A11DC3
:100AF000B11D8093C6019093C701A093C801B09324
:100B0000C901BF91AF919F918F913F912F910F900C
:100B10000FBE0F901F9018951F920F920FB60F9255
:100B200011242F933F934F935F936F937F938F93F2
:100B30009F93AF93BF93EF93FF938091B900887F0A
:100B4000803609F49CC068F5883209F45BC090F4E3
:100B5000803109F454C038F4882309F4F6C0883091
:100B600009F44DC0F6C0883109F44CC0803209F454
:100B70005DC0EFC0803409F468C048F4803309F4E4
:100B800055C0883309F0E5C080939D01D8C08035F9
:100B900009F44FC0883509F45DC0883409F0D9C024
:100BA000D6C0883909F4C7C0A8F4883709F467C0EB
:100BB00038F4883609F463C0803709F460C0C9C0CE
:100BC000883809F4B8C0803909F45FC0803809F06A
:100BD000C0C05BC0803B09F486C038F4803A09F499
:100BE00066C0883A09F47FC0B4C0803C09F4A7C04D
:100BF000883C09F4A4C0883B09F48AC0AAC080914B
:100C0000C00110C09091BF018091BE01981770F58E
:100C1000E091BF0181E08E0F8093BF01F0E0E256CA
:100C2000FE4F80818093BB0085EC86C080939D0140
:100C30008EC0E091BF0181E08E0F8093BF01809153
:100C4000BB00F0E0E256FE4F80839091BF0180919F
:100C5000BE016EC0E091BF0181E08E0F8093BF01A5
:100C60008091BB00F0E0E256FE4F80838091CB0183
:100C700081116DC081E08093CA0184EA61C083E084
:100C80008093CC0110929C01CFCF80919C01803247
:100C900008F051C0E0919C0181E08E0F80939C018F
:100CA0008091BB00F0E0E458FE4F8083BDCF85EC1F
:100CB0008093BC001092CC0180919C01803230F472
:100CC000E0919C01F0E0E458FE4F108260919C019D
:100CD00070E0E091D101F091D2018CE791E00995AB
:100CE00010929C0136C084E08093CC0110927B016D
:100CF00010927A01E091D301F091D401099580918D
:100D00007A01811105C081E080937A0110925A0125
:100D1000E0917B0181E08E0F80937B01F0E0E65A49
:100D2000FE4F80818093BB0090917B0180917A017E
:100D3000981708F479CF85E88093BC000AC085EC49
:100D40008093BC001092CC0104C010929D010E94BF
:100D50008902FF91EF91BF91AF919F918F917F9108
:100D60006F915F914F913F912F910F900FBE0F9018
:100D70001F901895EEE0F2E01382128288EE93E065
:100D8000A0E0B0E084839583A683B7832AE031E0B6
:100D90003183208325EC30E03587248724EC30E054
:100DA0003787268720EC30E0318B208B21EC30E038
:100DB000338B228B22EC30E0358B248B26EC30E019
:100DC000378B268B118E128E138E148EEBEAF2E087
:100DD0001382128284839583A683B7838AE191E08C
:100DE000918380830895789484B5826084BD84B5AE
:100DF000816084BD85B5826085BD85B5816085BD16
:100E000080916E00816080936E00109281008091CD
:100E10008100826080938100809181008160809355
:100E20008100809180008160809380008091B1007A
:100E300084608093B1008091B00081608093B000A5
:100E400080917A00846080937A0080917A00826039
:100E500080937A0080917A00816080937A008091FB
:100E60007A00806880937A001092C10010920A0282
:100E700010920B0210920C0210920D021092D801E7
:100E80001092D9011092DA011092DB0160ED77E047
:100E900080E090E00E9443028EE092E0909309028D
:100EA000809308020E9482000E947D020091D80176
:100EB0001091D9012091DA013091DB01DC01CB01E5
:100EC000801B910BA20BB30B8197A105B10538F4E0
:100ED00063E070E080E090E00E944302E5CF0E9472
:100EE0007D026093D8017093D9018093DA019093C9
:100EF000DB018091080290910902DC01ED91FC91E7
:100F00000280F381E02D41E150E066E271E0099555
:100F10006AE070E080E090E00E944302C1E0C0938C
:100F2000DC010E94820088E08093BA008CE191E0AD
:100F30009093D4018093D30188E291E09093D20101
:100F40008093D1011092D0011092CF011092CE0166
:100F50001092CD011092CC01C093CB011092CA0126
:100F600082E10E94AA0083E10E94AA008091B90058
:100F70008E7F8093B9008091B9008D7F8093B900F6
:100F800088E48093B80085E48093BC008BED94E006
:100F90009093D6018093D50164EF71E080E090E0FA
:100FA0000E9443020E941402F7CFEE0FFF1F05902C
:100FB000F491E02D0994CF93DF938230910510F4E2
:100FC00082E090E0E091B902F091BA0220E030E0D6
:100FD000C0E0D0E0309711F14081518148175907A6
:100FE000C0F04817590761F482819381209719F066
:100FF0009B838A832BC09093BA028093B90226C048
:101000002115310519F04217530718F49A01BE0152
:10101000DF01EF010280F381E02DDCCF21153105E6
:1010200009F1281B390B2430310590F412968D916B
:101030009C9113976115710521F0FB0193838283C5
:1010400004C09093BA028093B902FD01329644C065
:10105000FD01E20FF31F81939193225031092D93EB
:101060003C933AC02091B7023091B802232B41F44F
:1010700020910201309103013093B8022093B7020E
:1010800020910001309101012115310541F42DB766
:101090003EB74091040150910501241B350BE091AE
:1010A000B702F091B802E217F307A0F42E1B3F0B32
:1010B0002817390778F0AC014E5F5F4F24173507CA
:1010C00048F04E0F5F1F5093B8024093B7028193D0
:1010D000919302C0E0E0F0E0CF01DF91CF9108955D
:1010E0000F931F93CF93DF93009709F48CC0FC01FB
:1010F0003297138212820091B9021091BA0201153F
:10110000110581F420813181820F931F2091B70254
:101110003091B8022817390779F5F093B802E093B7
:10112000B70271C0D80140E050E0AE17BF0750F4DD
:1011300012962D913C911397AD012115310509F1BE
:10114000D901F3CF9D01DA0133832283608171815C
:10115000860F971F8217930769F4EC012881398164
:10116000260F371F2E5F3F4F318320838A819B815B
:1011700093838283452B29F4F093BA02E093B9025A
:1011800042C01396FC93EE931297ED014991599149
:101190009E01240F351FE217F30771F480819181BE
:1011A000840F951F029611969C938E938281938152
:1011B00013969C938E931297E0E0F0E0D80112967C
:1011C0008D919C911397009719F0F8018C01F6CF3F
:1011D0008D919C9198012E5F3F4F820F931F20911C
:1011E000B7023091B8022817390769F4309729F40B
:1011F0001092BA021092B90202C0138212821093A6
:10120000B8020093B702DF91CF911F910F9108951B
:10121000A0E0B0E0EEE0F9E00C94EB09EC010097FF
:1012200021F4CB010E94DB07B8C0FC01E60FF71FD9
:101230009C0122503109E217F30708F4ACC0D90130
:101240000D911C91119706171707B0F00530110585
:1012500008F49FC0C80104978617970708F499C03F
:1012600002501109061B170B019311936D937C9388
:10127000CF010E9470088DC05B01A01AB10A4C0119
:10128000800E911EA091B902B091BA0240E050E0E8
:10129000E12CF12C109709F44AC0A815B905D1F535
:1012A0006D907C901197630182E0C80ED11CCA1426
:1012B000DB0480F1A3014A195B096A0182E0C80ED0
:1012C000D11C1296BC9012971396AC91B5E0CB1638
:1012D000D10440F0B282A38351834083D9016D933E
:1012E0007C930AC00E5F1F4FC301800F911FF9014D
:1012F00091838083EB2DFA2FE114F10431F0D701B3
:101300001396FC93EE93129744C0F093BA02E093C5
:10131000B9023FC08D919C9111974817590708F465
:10132000AC017D0112960D90BC91A02DB3CF8091A0
:10133000B7029091B80288159905E1F4461757074E
:10134000C8F48091000190910101009741F48DB79C
:101350009EB74091040150910501841B950BE8173D
:10136000F907C8F4F093B802E093B702F90171836A
:1013700060830FC0CB010E94DB077C01009759F00E
:10138000A801BE010E94D709CE010E947008C701C2
:1013900004C0CE0102C080E090E0CDB7DEB7EEE041
:1013A0000C94070A81E090E0F8940C941E0AFB016B
:1013B000DC0102C001900D9241505040D8F70895D1
:1013C000FB01DC0101900D920020E1F708952F92BE
:1013D0003F924F925F926F927F928F929F92AF92C5
:1013E000BF92CF92DF92EF92FF920F931F93CF9312
:1013F000DF93CDB7DEB7CA1BDB0B0FB6F894DEBFA9
:101400000FBECDBF09942A88398848885F846E84CE
:101410007D848C849B84AA84B984C884DF80EE8018
:10142000FD800C811B81AA81B981CE0FD11D0FB621
:10143000F894DEBF0FBECDBFED010895F894FFCF45
:101440000000BB02800000000000AB01F10074014D
:1014500052016601F20100000000FB02E702DF0218
:10146000CB02BC02BB02564D4450565F317C315F0B
:08147000564D4450560D0A00D0
:00000001FF
