:100000000C945C000C9479000C9479000C947900A9
:100010000C9479000C9479000C9479000C9479007C
:100020000C9479000C9479000C9479000C9479006C
:100030000C9479000C9479000C9479000C9479005C
:100040000C94B3000C9479000C9479000C94790012
:100050000C9479000C9479000C9479000C9479003C
:100060000C9479000C947900000000080002010053
:100070000003040700000000000000000102040863
:100080001020408001020408102001020408102002
:10009000040404040404040402020202020203032E
:1000A0000303030300000000250028002B000000CC
:1000B0000000240027002A0011241FBECFEFD8E043
:1000C000DEBFCDBF11E0A0E0B1E0E0E8F4E002C0A7
:1000D00005900D92A430B107D9F721E0A4E0B1E07A
:1000E00001C01D92AD30B207E1F70E942E020C94C0
:1000F0003E020C94000061E0809102010C94BE016C
:1001000000E010E0C4EFD1E081E00130110509F01A
:1001100080E0082F10E00115110521F0D0930101B6
:10012000C093000161E0809102010E94F70160919B
:10013000000170910101882777FD8095982F0E941A
:10014000200160E0809102010E94F70160910001AE
:1001500070910101882777FD8095982F0E942001DA
:100160000F5F1F4FD1CF1F920F920FB60F92112426
:100170002F933F938F939F93AF93BF9380910501EC
:1001800090910601A0910701B091080130910401FE
:1001900023E0230F2D3720F40196A11DB11D05C0CA
:1001A00026E8230F0296A11DB11D20930401809320
:1001B000050190930601A0930701B0930801809177
:1001C000090190910A01A0910B01B0910C010196D7
:1001D000A11DB11D8093090190930A01A0930B0109
:1001E000B0930C01BF91AF919F918F913F912F914F
:1001F0000F900FBE0F901F9018953FB7F894809105
:10020000090190910A01A0910B01B0910C0126B552
:10021000A89B05C02F3F19F00196A11DB11D3FBF3E
:100220006627782F892F9A2F620F711D811D911DCE
:1002300042E0660F771F881F991F4A95D1F70895EE
:100240008F929F92AF92BF92CF92DF92EF92FF92E6
:100250006B017C010E94FD004B015C01C114D104C3
:10026000E104F104F1F00E943D020E94FD006819D2
:1002700079098A099B09683E73408105910570F3ED
:1002800021E0C21AD108E108F10888EE880E83E067
:10029000981EA11CB11CC114D104E104F10429F77A
:1002A000DDCFFF90EF90DF90CF90BF90AF909F9009
:1002B0008F900895789484B5826084BD84B5816000
:1002C00084BD85B5826085BD85B5816085BDEEE65E
:1002D000F0E0808181608083E1E8F0E0108280813D
:1002E00082608083808181608083E0E8F0E08081AB
:1002F00081608083E1EBF0E0808184608083E0EBCB
:10030000F0E0808181608083EAE7F0E080818460B2
:10031000808380818260808380818160808380810E
:10032000806880831092C1000895833081F028F4A2
:10033000813099F08230A1F008958730A9F088309B
:10034000B9F08430D1F4809180008F7D03C080911A
:1003500080008F7780938000089584B58F7702C0E6
:1003600084B58F7D84BD08958091B0008F7703C0E0
:100370008091B0008F7D8093B0000895CF93DF937C
:1003800090E0FC01E458FF4F2491FC01E057FF4F3F
:100390008491882349F190E0880F991FFC01E25570
:1003A000FF4FA591B4918C559F4FFC01C591D491FD
:1003B0009FB7611108C0F8948C91209582238C938B
:1003C000888182230AC0623051F4F8948C91322FD4
:1003D000309583238C938881822B888304C0F89482
:1003E0008C91822B8C939FBFDF91CF9108950F93B7
:1003F0001F93CF93DF931F92CDB7DEB7282F30E046
:10040000F901E859FF4F8491F901E458FF4F149125
:10041000F901E057FF4F04910023C9F0882321F030
:1004200069830E9495016981E02FF0E0EE0FFF1FC4
:10043000EC55FF4FA591B4919FB7F8948C91611141
:1004400003C01095812301C0812B8C939FBF0F9017
:10045000DF91CF911F910F91089508950E945A0145
:100460000E942D020E947B00C0E0D0E00E9480002C
:100470002097E1F30E940000F9CF0895F894FFCF90
:04048000640007000D
:00000001FF
