:100000000C9464000C948C000C948C000C94C4022E
:100010000C94C4020C94C4020C948C000C948C00BC
:100020000C948C000C948C000C948C000C948C0020
:100030000C948C000C948C000C948C000C948C0010
:100040000C94940B0C948C000C945F0E0C94910EF9
:100050000C948C000C948C000C948C000C948C00F0
:100060000C948C000C948C0000000008000201002D
:100070000003040700000000000000000102040863
:100080001020408001020408102001020408102002
:10009000040404040404040402020202020203032E
:1000A00003030303000000002300260029000000D2
:1000B0000000250028002B0000000000240027007D
:1000C0002A00D201C10EE30111241FBECFEFD8E0F8
:1000D000DEBFCDBF13E0A0E0B1E0E8E2F9E202C08C
:1000E00005900D92A039B107D9F726E0A0E9B3E059
:1000F00001C01D92A739B207E1F710E0C6ECD0E0CD
:1001000004C02297FE010E94F511C23CD107C9F735
:100110000E94050F0C9487140C9400001F93CF933A
:10012000DF93CDB7DEB72A970FB6F894DEBF0FBEC8
:10013000CDBF9A01AB01BC01CE0101962F83388758
:1001400049875A870E94D5102F81388549855A855D
:10015000BE016F5F7F4F81E993E00E941309182F62
:10016000CE0101960E940410112351F066E071E067
:1001700086EF95E00E94660F83E08093900306C0AF
:1001800064E171E086EF95E00E94660F2A960FB653
:10019000F894DEBF0FBECDBFDF91CF911F910895C0
:1001A000CF93DF9300D000D000D0CDB7DEB781E988
:1001B00093E00E94F40780939003833091F065E20E
:1001C00071E0CE0101960E9472104AE250E260E0B6
:1001D00070E0CE0101960E948E00CE0101960E9431
:1001E000041060E070E0CB010E940D0C26960FB663
:1001F000F894DEBF0FBECDBFDF91CF91089520915F
:100200009003233089F4FC0160817181FB0101902E
:100210000020E9F73197E61BF70B9F0140E050E023
:1002200081E993E00C94E20908951F93CF93DF9343
:10023000CDB7DEB72C970FB6F894DEBF0FBECDBF9B
:1002400040ED57E060E070E086EB95E00E94FB0A2D
:1002500020E835E240E050E066EF75E086EB95E09F
:100260000E940E0B86EB95E00E94F80A63E371E0B2
:100270008091E7059091E8050E94600F6AE070E0C8
:1002800080E090E00E940D0C41E060E086EB95E09C
:100290000E94790B26E040E855E260E070E086EFCE
:1002A00095E00E94FD0D65E471E0CE0101960E948B
:1002B00072106FE471E0CE0107960E947210AE01D9
:1002C0004F5F5F4FBE01695F7F4F81E993E00E94FE
:1002D0004907182FCE0107960E940410CE010196FF
:1002E0000E9404101123F1F060E671E086EF95E0C2
:1002F0000E94600F61E973E0CE0101960E94350A09
:10030000BE016F5F7F4F86EF95E00E94520FCE01D6
:1003100001960E94041068EE73E080E090E00E9475
:100320000D0C12C068E771E086EF95E00E94600F47
:100330006FE471E086EF95E00E94600F64E871E081
:1003400086EF95E00E94660F81E993E00E94CD0A56
:1003500065E271E0CE0101960E9472104AE250E21D
:1003600060E070E0CE0101960E948E00CE01019601
:100370000E9404106CE871E0CE0101960E94721098
:10038000CE0101960E94FF00CE0101960E9404104A
:100390002C960FB6F894DEBF0FBECDBFDF91CF9184
:1003A0001F91089520E04AE06BE083E993E00E940A
:1003B000950320E835E240E050E063E973E081E92D
:1003C00093E00C946F0483E993E00C943C03209138
:1003D000B4053091B50528173907A9F49091B203F7
:1003E0008091B303981779F0E091B203F0E0EC54F8
:1003F000FC4F80812091B20330E02F5F3F4F20936C
:10040000B20390E008958FEF9FEF08951F93CF936D
:10041000DF93DC015C968D919C915D97009749F488
:1004200081E090E013969C938E93129780E090E089
:100430003BC05196ED91FC91529750962C9150975C
:10044000322F30951FB75E964C915E9741FB772710
:1004500070F941FD6095F8944081772311F0422BAB
:1004600001C043234083EC012197F1F748E050811C
:1004700060FF02C0522B01C053235083EC0121972F
:10048000F1F76695415099F78081772311F0832326
:1004900001C0822B80831FBF5C968D919C915D97DC
:1004A0000197F1F781E090E0DF91CF911F910895DE
:1004B00008952091B4053091B5052817390771F4D6
:1004C0009091B2038091B303981741F0E091B20389
:1004D000F0E0EC54FC4F808190E008958FEF9FEFA7
:1004E00008952091B4053091B5052817390751F4C6
:1004F0008091B3032091B20390E09E5F821B91092B
:100500009170089580E090E00895E091B405F09135
:10051000B505E817F90769F4A389B4899C91858921
:10052000809589238C931092B5051092B40581E0D3
:10053000089580E00895CF93DF93EC018A8D9B8D21
:10054000892BF1F08091B4059091B5058C179D072A
:10055000B9F0009711F00E9485028E8D8E7F8E8FEC
:100560001092B3031092B203D093B505C093B405B3
:10057000EB89FC8980819D89892B808381E001C082
:1005800080E0DF91CF9108951F920F920FB60F92E6
:1005900011242F933F934F935F936F937F938F9388
:1005A0009F93AF93BF93EF93FF93E091B405F091C6
:1005B000B505309709F44FC0868DA685B78595851A
:1005C00081FF04C08C91892329F445C08C91892333
:1005D00009F041C0A389B4899C91858980958923BC
:1005E0008C93868997890197F1F7208D318DA685A7
:1005F000B785758558E040E0C9010197F1F7842F70
:1006000090E095958795482F6C91672309F0406895
:10061000515091F7868D81FD40958091B30390E014
:1006200001962091B203281749F0A091B303B0E0DE
:10063000AC54BC4F4C938093B30303C0868D816050
:10064000868F828D938D0197F1F7A389B4898C9160
:100650009589892B8C93FF91EF91BF91AF919F91D9
:100660008F917F916F915F914F913F912F910F905B
:100670000FBE0F901F9018952FEA31E0FC013183D7
:1006800020830C9485021F93CF93DF93EC01162FE8
:100690006E8D6695617081E06827812F0E94E40C61
:1006A00061E0812F0E94AB0C812F90E0FC01E458A7
:1006B000FF4FE491E88BFC01E057FF4FE491F0E03D
:1006C000EE0FFF1FE255FF4F859194919A8B898B16
:1006D000DF91CF911F9108951F93CF93DF93EC018A
:1006E000162F60E0812F0E94AB0C8E8D81FD04C01F
:1006F00061E0812F0E94E40C1C87812F90E0FC01B7
:10070000E458FF4FE491ED87FC01E057FF4FE4917F
:10071000F0E0EE0FFF1FEC55FF4F859194919F87FE
:100720008E87DF91CF911F910895FF920F931F93B2
:10073000CF93DF93EC01F62E522F1B821A8208EE24
:1007400013E020E030E00C831D832E833F838FEA8B
:1007500091E0998388831F8A1E8A198E188E1B8EBA
:100760001A8E1D8E1C8E8E8D8E7F50FB81F98E8F82
:10077000642FCE010E9443036F2DCE01DF91CF91F4
:100780001F910F91FF900C946C03CF93DF93EC01BA
:100790009A01AB011B8E1A8E198E188E1F8A1E8A23
:1007A00060E079E08DE390E00E94D411C90124302B
:1007B000310520F0B9016350710902C061E070E0B9
:1007C0007D8F6C8FEC85E63108F068C0B9017695B5
:1007D00067956431710518F06351710902C061E0D9
:1007E00070E07F8B6E8B069718F0C901059702C0E9
:1007F00081E090E0998F888FC901880F991F820F3F
:10080000931F96958795969587958D30910510F055
:100810000C9702C081E090E09B8F8A8F2091680046
:10082000E83050F091E0EE3008F490E081E001C053
:10083000880F9A95EAF701C084E0822B80936800C4
:100840002C85283038F02E3040F0263148F48CE6E4
:1008500090E008C08DE690E005C08BE690E002C015
:1008600080E090E09C8B8B8B283030F481E001C0DD
:10087000880F2A95EAF70DC0822F90E02E3010F4F1
:10088000089701C00E9791E001C0990F8A95EAF789
:10089000892F8D8B8C8D9D8D0197F1F7CE01DF9186
:1008A000CF910C949B02CF93DF93EC0188819981C7
:1008B000DC01ED91FC910480F581E02D099518167D
:1008C000190654F488819981DC01ED91FC91068030
:1008D000F781E02D0995EACFDF91CF910895CF936D
:1008E000DF93EC01CB01BA01A901998388830E94AF
:1008F000C503CE01DF91CF910C9453044F925F92C8
:100900006F927F928F929F92AF92BF92CF92DF921F
:10091000EF92FF920F931F93CF93DF93EC015B0154
:100920004A016801790168E472E00E9472100E9435
:10093000DE0B2B013C010E94DE0B64197509860950
:1009400097096C157D058E059F0520F5F5018081C1
:100950009181DC01ED91FC910480F581E02D0995F8
:10096000181619068CF4D5018D919C91DC01ED913E
:10097000FC910680F781E02D0995882339F3682FD3
:10098000CE010E942E11E2CFB401CE010E945D1172
:10099000019689F2CE01DF91CF911F910F91FF90C7
:1009A000EF90DF90CF90BF90AF909F908F907F900F
:1009B0006F905F904F9008952F923F924F925F9269
:1009C0006F927F928F929F92AF92BF92CF92DF925F
:1009D000EF92FF920F931F93CF93DF93EC011B01D4
:1009E0004A0159012701380168E472E00E9472103F
:1009F0000E94DE0B6B017C010E94DE0B6C197D09ED
:100A00008E099F09641575058605970550F5F10156
:100A100080819181DC01ED91FC910480F581E02DD4
:100A20000995181619068CF4D1018D919C91DC0161
:100A3000ED91FC910680F781E02D0995882339F32B
:100A4000682FCE010E942E11E2CFB401CE010E9488
:100A50005D11019631F4B501CE010E945D11019640
:100A600059F2CE01DF91CF911F910F91FF90EF903E
:100A7000DF90CF90BF90AF909F908F907F906F90BE
:100A80005F904F903F902F9008952F923F924F92FA
:100A90005F926F927F928F929F92AF92BF92CF920E
:100AA000DF92EF92FF920F931F93CF93DF93EC01AE
:100AB0005B011A01490168E472E00E9472100E9411
:100AC000DE0B2B013C010E94DE0B641975098609BF
:100AD00097096C157D058E059F0580F5F5018081D0
:100AE0009181DC01ED91FC910480F581E02D099567
:100AF000181619068CF4D5018D919C91DC01ED91AD
:100B0000FC910680F781E02D0995882339F3682F41
:100B1000CE010E942E11E2CFB101CE010E945D11E3
:100B2000019661F4B401CE010E945D11019631F489
:100B3000B801CE010E945D11019629F2CE01DF912C
:100B4000CF911F910F91FF90EF90DF90CF90BF90CA
:100B5000AF909F908F907F906F905F904F903F905D
:100B60002F900895CF92DF92EF92FF920F931F93F1
:100B7000CF93DF93CDB7DEB766970FB6F894DEBF9D
:100B80000FBECDBF6C017B0168E472E0CE010D9613
:100B90002B8B3C8B4D8B5E8B0E947210B701CE016C
:100BA00007960E94D5102B893C894D895E89890161
:100BB0009A01AE01495F5F4FB601CE0101960E94D6
:100BC0007E04BE016F5F7F4FCE010D960E94DE1046
:100BD000CE0101960E940410CE0107960E940410D7
:100BE000B701CE010D960E945D117C01CE010D96DC
:100BF0000E94041081E0EF20E09409F480E0669602
:100C00000FB6F894DEBF0FBECDBFDF91CF911F911D
:100C10000F91FF90EF90DF90CF9008952F923F9229
:100C20004F925F926F927F928F929F92AF92BF92FC
:100C3000CF92DF92EF92FF920F931F93CF93DF93A8
:100C4000CDB7DEB762970FB6F894DEBF0FBECDBF4B
:100C50002C013B014A011901580168E472E0CE0100
:100C60000D960E947210B301CE0107960E94D51016
:100C700097018601AE01495F5F4FB201CE01019637
:100C80000E947E04BE016F5F7F4FCE010D960E94D1
:100C9000DE10CE0101960E940410CE0107960E943C
:100CA0000410B301CE010D960E945D110196B1F1C1
:100CB000B401CE010D960E945D112C01662457FCF3
:100CC0006094762CB101CE010D960E945D11EFEF7C
:100CD0004E165E066E067E0609F18F3FFFEF9F07F8
:100CE000E9F0F40124813581B301A201420F531FC1
:100CF000611D711D9C01BE01635F7F4FCE01019696
:100D00000E946111BE016F5F7F4FC5010E94DE101E
:100D1000CE0101960E94041011E006C068E472E062
:100D2000C5010E94EA1010E0CE010D960E94041049
:100D3000812F62960FB6F894DEBF0FBECDBFDF9154
:100D4000CF911F910F91FF90EF90DF90CF90BF90C8
:100D5000AF909F908F907F906F905F904F903F905B
:100D60002F900895CF92DF92EF92FF920F931F93EF
:100D7000CF93DF93CDB7DEB768970FB6F894DEBF99
:100D80000FBECDBF6C018B017A0168E472E0CE0129
:100D900043960E947210C6010E94530462E072E002
:100DA000F601808191810E94600FB801F601808177
:100DB00091810E94520F6DE072E0F6018081918175
:100DC0000E94600FB701F601808191810E94520F4D
:100DD0006FE072E0F601808191810E94660F61E10F
:100DE00072E0CE0107960E94721061EE71E0CE01B2
:100DF0000D960E94721010E1E12E17E2F12E00E034
:100E000010E09E01295F3F4FAE01435F5F4FB60187
:100E1000CE0101960E94DC04BE016F5F7F4FCE01C0
:100E200043960E94DE10CE0101960E940410CE016E
:100E30000D960E940410CE0107960E94041061EEE8
:100E400071E0CE0101960E947210BE016F5F7F4F6C
:100E5000CE0143960E945D118C01CE0101960E9445
:100E60000410CE0143960E94041081E00F3F1F4FF3
:100E700009F480E068960FB6F894DEBF0FBECDBFD0
:100E8000DF91CF911F910F91FF90EF90DF90CF9066
:100E90000895EF92FF920F931F93CF93DF93CDB7F7
:100EA000DEB72C970FB6F894DEBF0FBECDBF8C0116
:100EB0007B01BA01CE0101960E94D510B701CE0187
:100EC00007960E94D510AE014F5F5F4FBE01695F6C
:100ED0007F4FC8010E94B206182FCE0107960E94CC
:100EE0000410CE0101960E940410812F2C960FB69B
:100EF000F894DEBF0FBECDBFDF91CF911F910F9150
:100F0000FF90EF900895AF92BF92CF92DF92EF9251
:100F1000FF920F931F93CF93DF93CDB7DEB7689700
:100F20000FB6F894DEBF0FBECDBF5C018B0168E445
:100F300072E0CE0143960E94721064E670E080E099
:100F400090E00E940D0CC5010E94530469E472E018
:100F5000F501808191810E94660F6DED71E0CE01F7
:100F600001960E94721065E472E0CE0107960E941D
:100F7000721061EE71E0CE010D960E94721058EE73
:100F8000C52E53E0D52EE12CF12C9E012F5F3F4F53
:100F9000AE01495F5F4FBE01635F7F4FC5010E9495
:100FA0000E06182FCE010D960E940410CE01079652
:100FB0000E940410CE0101960E940410CE014396B7
:100FC0000E940410812F68960FB6F894DEBF0FBE02
:100FD000CDBFDF91CF911F910F91FF90EF90DF90E8
:100FE000CF90BF90AF9008950F931F93CF93DF934F
:100FF000CDB7DEB72C970FB6F894DEBF0FBECDBFCE
:101000008C0168E472E0CE0107960E947210BE0166
:10101000695F7F4FC8010E94830766E572E0CE01D9
:1010200001960E947210BE016F5F7F4FCE0107963E
:101030000E945D118C01CE0101960E9404100F3FA9
:101040001F4FA9F02B853C8547E050E0BE01695F4A
:101050007F4FCE0101960E946111CE0101960E9440
:10106000A611162FCE0101960E94041001C014E0B3
:10107000CE0107960E940410812F2C960FB6F8948B
:10108000DEBF0FBECDBFDF91CF911F910F910895AD
:101090006F927F928F929F92AF92BF92CF92DF9288
:1010A000EF92FF920F931F93CF93DF93CDB7DEB7ED
:1010B0006E970FB6F894DEBF0FBECDBF5C014B013B
:1010C0003A016801790168E472E0CE0149960E9414
:1010D0007210C5010E9453046EE572E0F501808133
:1010E00091810E94600FB401F501808191810E947D
:1010F000520F6DE072E0F501808191810E94600FD6
:10110000B301F501808191810E94520F63E372E087
:10111000F501808191810E94600F2AE030E0B701E3
:10112000A601F501808191810E94F20F6CE672E0C8
:10113000CE0107960E94721066E372E0CE010D9612
:101140000E94721061EE71E0CE0143960E9472100F
:1011500060E1C62E67E2D62EE12CF12C8E01095FEC
:101160001F4F9E01235F3F4FAE014D5E5F4FB501A4
:10117000CE0101960E944505BE016F5F7F4FCE01F3
:1011800049960E94DE10CE0101960E940410CE0105
:1011900043960E940410CE010D960E940410C801CF
:1011A0000E94041061EE71E0C8010E947210B80143
:1011B000CE0149960E945D110196B1F46CE672E091
:1011C000CE0101960E947210BE016F5F7F4FCE016B
:1011D00049960E945D1111E0019609F410E0CE01DC
:1011E00001960E94041001C011E0CE0107960E94F2
:1011F0000410CE0149960E940410812F6E960FB6FE
:10120000F894DEBF0FBECDBFDF91CF911F910F913C
:10121000FF90EF90DF90CF90BF90AF909F908F9016
:101220007F906F900895EF92FF920F931F93CF934B
:10123000DF93CDB7DEB760970FB6F894DEBF0FBE71
:10124000CDBF7C01CE0101962D873E874F87588BFD
:101250000E94D5106CE772E0CE0107960E947210D2
:101260002D853E854F85588989019A01AE014F5FD2
:101270005F4FBE01695F7F4FC7010E944808F82E8B
:10128000CE0107960E940410CE0101960E94041020
:101290008F2D60960FB6F894DEBF0FBECDBFDF91E5
:1012A000CF911F910F91FF90EF9008954F925F9211
:1012B0006F927F92AF92BF92CF92DF92EF92FF92A6
:1012C0000F931F93CF93DF9300D000D000D0CDB702
:1012D000DEB78C017B0129013A010E94530461E9C8
:1012E00072E0D8018D919C910E94600F2AE030E05D
:1012F000B301A201F801808191810E94F20F6DE992
:1013000072E0CE0101960E94721028E833E140E0BD
:1013100050E0BE016F5F7F4FC8010E94B205D82E1A
:10132000CE0101960E940410DD20A9F1C8010E949F
:1013300053045701C12CD12C7601C414D504E60402
:10134000F70499F0D8018D919C91F50161915F01AD
:10135000DC01ED91FC910190F081E02D0995BFEF4A
:10136000CB1ADB0AEB0AFB0AE8CF6FE972E0CE0189
:1013700001960E94721020E137E240E050E0BE0189
:101380006F5F7F4FC8010E94B205182FCE010196F2
:101390000E94041001C010E0812F26960FB6F89429
:1013A000DEBF0FBECDBFDF91CF911F910F91FF9098
:1013B000EF90DF90CF90BF90AF907F906F905F9055
:1013C0004F9008950C945609CF92DF92EF92FF92BE
:1013D0000F931F93CF93DF93CDB7DEB72C970FB644
:1013E000F894DEBF0FBECDBF7C016B010E94530499
:1013F0006CEC72E0F701808191810E94660F61EED2
:1014000071E0CE0107960E94721000E117E220E021
:1014100030E0AE01495F5F4FB701CE0101960E94F7
:101420007E04BE016F5F7F4FC6010E94DE10CE01B9
:1014300001960E940410CE0107960E94041081E0DC
:10144000F60124813581232B09F480E02C960FB618
:10145000F894DEBF0FBECDBFDF91CF911F910F91EA
:10146000FF90EF90DF90CF9008950F931F93CF934D
:10147000DF93EC018B0168E472E00E947210BE0100
:10148000C8010E94E409CE01DF91CF911F910F9115
:101490000895CF92DF92EF92FF920F931F93CF9315
:1014A000DF93CDB7DEB768970FB6F894DEBF0FBEF7
:1014B000CDBF6C01162F68E472E0CE0143960E9406
:1014C0007210C6010E94530465ED72E0F60180813E
:1014D00091810E94600F4AE050E0612FF601808107
:1014E00091810E94DB0F60EE72E0CE0107960E94B0
:1014F000721061EE71E0CE010D960E94721018EE2E
:10150000E12E13E0F12E00E010E09E01295F3F4F35
:10151000AE01435F5F4FB601CE0101960E94DC042D
:10152000BE016F5F7F4FCE0143960E94DE10CE0159
:1015300001960E940410CE010D960E940410CE0167
:1015400007960E94041061EE71E0CE0101960E94A0
:101550007210BE016F5F7F4FCE0143960E945D11F6
:101560006C01CE0101960E940410CE0143960E94A8
:10157000041081E0CD20C09409F480E068960FB695
:10158000F894DEBF0FBECDBFDF91CF911F910F91B9
:10159000FF90EF90DF90CF90089560E00C94490A9F
:1015A0000F931F93CF93DF93EC01662359F00E94B2
:1015B000DE0B69837A838B839C83DF91CF911F91AC
:1015C0000F9108950E94DE0B09811A812B813C81C5
:1015D000601B710B820B930B6132710581059105C4
:1015E00030F763E070E080E090E00E940D0CEACFFD
:1015F00060E00C94D00AFC0113AA14AA15AA16AA3A
:101600001182128213821482411551056105710500
:1016100021F0CB01BA010C940D0C0895FB01BA0125
:10162000A901DC01D296FC93EE93D19726E0CF017D
:101630000C94FD0D1F93CF93DF93EC01162F6AE1FD
:1016400073E089A99AA90E94600F4AE050E0612FD7
:1016500089A99AA90E94D40F61E273E089A99AA985
:101660000E94600F62E370E080E090E0DF91CF9134
:101670001F910C940D0C1F93CF93DF93EC01162F49
:101680008D81882389F189A99AA9DC01ED91FC91CA
:101690000480F581E02D0995892BA9F307C0263731
:1016A000310519F12835310509F41D8289A99AA956
:1016B000DC01ED91FC910480F581E02D099518166F
:1016C000190694F489A99AA9DC01ED91FC91068090
:1016D000F781E02D09959C01332723363105F9F672
:1016E000612FCE010E941A0B83E6DF91CF911F91EB
:1016F00008950F931F93CF93DF931F92CDB7DEB75B
:101700008C01662349F081E0F801858360E0C8011F
:1017100049830E943B0B4981F80145830F90DF917B
:10172000CF911F910F9108951F920F920FB60F92B4
:1017300011242F933F938F939F93AF93BF938091E7
:10174000EE059091EF05A091F005B091F105309173
:10175000ED0523E0230F2D3720F40196A11DB11DC7
:1017600005C026E8230F0296A11DB11D2093ED05AB
:101770008093EE059093EF05A093F005B093F105EB
:101780008091F2059091F305A091F405B091F505D3
:101790000196A11DB11D8093F2059093F305A093CE
:1017A000F405B093F505BF91AF919F918F913F9153
:1017B0002F910F900FBE0F901F9018952FB7F89490
:1017C0006091EE057091EF058091F0059091F10523
:1017D0002FBF08953FB7F8948091F2059091F305DB
:1017E000A091F405B091F50526B5A89B05C02F3F43
:1017F00019F00196A11DB11D3FBF6627782F892FD3
:101800009A2F620F711D811D911D42E0660F771F97
:10181000881F991F4A95D1F708958F929F92AF9292
:10182000BF92CF92DF92EF92FF926B017C010E94F8
:10183000EA0B4B015C01C114D104E104F104F1F0A5
:101840000E94B1110E94EA0B681979098A099B0963
:10185000683E73408105910570F321E0C21AD108FA
:10186000E108F10888EE880E83E0981EA11CB11CE7
:10187000C114D104E104F10429F7DDCFFF90EF900A
:10188000DF90CF90BF90AF909F908F900895789405
:1018900084B5826084BD84B5816084BD85B5826075
:1018A00085BD85B5816085BDEEE6F0E08081816013
:1018B0008083E1E8F0E01082808182608083808113
:1018C00081608083E0E8F0E0808181608083E1EBEB
:1018D000F0E0808184608083E0EBF0E080818160D3
:1018E0008083EAE7F0E08081846080838081826089
:1018F0008083808181608083808180688083109272
:10190000C1000895833081F028F4813099F082304D
:10191000A1F008958730A9F08830B9F08430D1F46F
:10192000809180008F7D03C0809180008F778093AD
:101930008000089584B58F7702C084B58F7D84BD03
:1019400008958091B0008F7703C08091B0008F7DA3
:101950008093B0000895CF93DF9390E0FC01E458AA
:10196000FF4F2491FC01E057FF4F8491882349F1F8
:1019700090E0880F991FFC01E854FF4FA591B491A6
:1019800082559F4FFC01C591D4919FB7611108C04A
:10199000F8948C91209582238C93888182230AC0AD
:1019A000623051F4F8948C91322F309583238C93CC
:1019B0008881822B888304C0F8948C91822B8C932D
:1019C0009FBFDF91CF9108950F931F93CF93DF9324
:1019D0001F92CDB7DEB7282F30E0F901E859FF4F4D
:1019E0008491F901E458FF4F1491F901E057FF4F3A
:1019F00004910023C9F0882321F069830E94820C9E
:101A00006981E02FF0E0EE0FFF1FE255FF4FA59137
:101A1000B4919FB7F8948C91611103C01095812304
:101A200001C0812B8C939FBF0F90DF91CF911F91AD
:101A30000F910895FC01818D228D90E0805C9F4F75
:101A4000821B91098F7399270895FC01918D828DD6
:101A5000981731F0828DE80FF11D858D90E0089583
:101A60008FEF9FEF0895FC01918D828D981761F0A3
:101A7000828DDF01A80FB11D5D968C91928D9F5FC5
:101A80009F73928F90E008958FEF9FEF089587EBFB
:101A90009EE0892B49F080E090E0892B29F00E949C
:101AA000B70E81110C9400000895FC01848DDF01B4
:101AB000A80FB11DA35ABF4F2C91848D90E00196C1
:101AC0008F739927848FA689B7892C93A089B189B0
:101AD0008C9180648C93938D848D981306C00288BA
:101AE000F389E02D80818F7D80830895CF93DF93EC
:101AF000EC01888D8823C9F0EA89FB89808185FD06
:101B000005C0A889B9898C9186FD0FC00FB607FC66
:101B1000F5CF808185FFF2CFA889B9898C9185FFA7
:101B2000EDCFCE010E94550DE7CFDF91CF91089503
:101B3000CF92DF92FF920F931F93CF93DF931F9269
:101B4000CDB7DEB76C0181E0D60158968C935897DB
:101B50005B969C915B975C968C915C97981307C001
:101B60005096ED91FC915197808185FD2EC0F60134
:101B7000038D10E00F5F1F4F0F731127F02EF6013A
:101B8000848DF81211C00FB607FCF9CFD60150961C
:101B9000ED91FC915197808185FFF1CFC60169835A
:101BA0000E94550D6981EBCF838DE80FF11DE35A3B
:101BB000FF4F6083D6015B960C935B975296ED9135
:101BC000FC915397808180620CC0D6015696ED91AE
:101BD000FC91579760835096ED91FC9151978081CD
:101BE0008064808381E090E00F90DF91CF911F911E
:101BF0000F91FF90DF90CF900895BF92CF92DF9228
:101C0000EF92FF92CF93DF93EC016A017B01B22E3A
:101C1000E889F98982E08083411581EE58076105E2
:101C20007105A1F060E079E08DE390E0A7019601F5
:101C30000E94B21121503109410951095695479529
:101C400037952795211580E1380798F0E889F989BB
:101C5000108260E874E88EE190E0A70196010E948E
:101C6000B2112150310941095109569547953795CF
:101C70002795EC85FD853083EE85FF852083188EC2
:101C8000EC89FD89B082EA89FB898081806180834B
:101C9000EA89FB89808188608083EA89FB89808169
:101CA00080688083EA89FB8980818F7D8083DF91D2
:101CB000CF91FF90EF90DF90CF90BF9008951F924B
:101CC0000F920FB60F9211242F938F939F93EF9340
:101CD000FF93E0910606F09107068081E0910C06E3
:101CE000F0910D0682FD12C0908180910F068F5FEA
:101CF0008F7320911006821751F0E0910F06F0E0EB
:101D0000EA50FA4F958F80930F0601C08081FF91B2
:101D1000EF919F918F912F910F900FBE0F901F9079
:101D200018951F920F920FB60F9211242F933F9385
:101D30004F935F936F937F938F939F93AF93BF93D3
:101D4000EF93FF9386EF95E00E94550DFF91EF9181
:101D5000BF91AF919F918F917F916F915F914F91C3
:101D60003F912F910F900FBE0F901F90189586EF07
:101D700095E00E941A0D21E0892B09F420E0822FC2
:101D800008951092F9051092F80588EE93E0A0E00E
:101D9000B0E08093FA059093FB05A093FC05B09307
:101DA000FD0586E793E09093F7058093F60585ECB3
:101DB00090E0909303068093020684EC90E0909369
:101DC00005068093040680EC90E0909307068093CC
:101DD000060681EC90E0909309068093080682EC59
:101DE00090E090930B0680930A0686EC90E0909327
:101DF0000D0680930C0610920F061092100610929A
:101E0000110610921206089508950E94470C0E9430
:101E1000040F0E941501C7E4DDE00E94D000209766
:101E2000E1F30E94470DF9CFCF92DF92EF92FF923C
:101E30000F931F93CF93DF937C016A01EB0100E0C6
:101E400010E00C151D0571F06991D701ED91FC9121
:101E50000190F081E02DC7010995892B19F00F5FE2
:101E60001F4FEFCFC801DF91CF911F910F91FF90CE
:101E7000EF90DF90CF9008956115710581F0DB013F
:101E80000D900020E9F7AD0141505109461B570B59
:101E9000DC01ED91FC910280F381E02D099480E05A
:101EA00090E00895DC01ED91FC91DB0114964D91D9
:101EB0005C9115976D917C910280F381E02D0994DE
:101EC0000C943C0F66E472E00C943C0F0F931F934C
:101ED000CF93DF93EC010E943C0F8C01CE010E9456
:101EE000620F800F911FDF91CF911F910F91089585
:101EF0008F929F92AF92BF92DF92EF92FF920F93D9
:101F00001F93CF93DF93CDB7DEB7A1970FB6F894A9
:101F1000DEBF0FBECDBF7C01F42FD52ECB0119A2A1
:101F2000223008F42AE08E010F5D1F4F822E912C83
:101F3000A12CB12C6F2F7D2DA50194010E94B2110F
:101F4000F22FD32ECA01015011096A3014F4E0E3D4
:101F500001C0E7E3E60FD801EC93232B242B252BBC
:101F600049F7B801C7010E943C0FA1960FB6F8943B
:101F7000DEBF0FBECDBFDF91CF911F910F91FF90BC
:101F8000EF90DF90BF90AF909F908F9008952115B4
:101F9000310541F4DC01ED91FC910190F081E02DDF
:101FA000642F09940C94780F9A01462F50E060E05A
:101FB00070E00C94C70F0F931F93CF93DF93EC0146
:101FC0009A01462F50E060E070E00E94C70F8C013C
:101FD000CE010E94620F800F911FDF91CF911F9160
:101FE0000F9108950F931F93CF93DF93EC010E94FD
:101FF000C70F8C01CE010E94620F800F911FDF91ED
:10200000CF911F910F910895FC01808191810C94D3
:102010009112CF93DF93EC0188819981009711F0A1
:102020000E949112198218821D821C821B821A82C0
:10203000DF91CF9108950F931F93CF93DF93EC011E
:102040008B016F5F7F4F888199810E9420130097D9
:1020500031F0998388831B830A8381E001C080E08B
:10206000DF91CF911F910F910895CF93DF93EC01F2
:1020700088819981892B29F08A819B81861797070E
:1020800060F4CE010E941B10882341F08C819D8159
:10209000892B19F4E881F981108281E0DF91CF91D9
:1020A0000895EF92FF920F931F93CF93DF93EC016C
:1020B0007B018A01BA010E943510811104C0CE0152
:1020C0000E94091007C01D830C83B7018881998184
:1020D0000E941A14CE01DF91CF911F910F91FF90B2
:1020E000EF900895FC0111821082138212821582F2
:1020F00014826115710559F0FB0101900020E9F788
:10210000AF0141505109461B570B0C9451100895D3
:102110000F931F93CF93DF938C01EB01FC01808120
:102120009181009799F0428153812C813D81421722
:10213000530750F0688179810E941A148C819D8127
:10214000F8019583848313C00E949112888199813C
:10215000F801918380838A819B81938382838C8120
:102160009D8195838483198218821B821A821D8225
:102170001C82DF91CF911F910F910895CF93DF9330
:10218000EC01FB018617970761F060817181611591
:10219000710529F0448155810E94511002C00E94AE
:1021A0000910CE01DF91CF910895FC0111821082B8
:1021B00013821282158214820C94BE10CF93DF9387
:1021C000EC018617970711F00E948810CE01DF916D
:1021D000CF910895CF93DF93EC016115710561F004
:1021E000FB0101900020E9F7AF0141505109461B66
:1021F000570B0E94511002C00E940910CE01DF91BE
:10220000CF910895EF92FF920F931F93CF93DF9397
:10221000EC017B010C811D816115710511F480E0D9
:1022200016C04115510591F0040F151FB8010E9409
:1022300035108823A1F3288139818C819D81B701D4
:10224000820F931F0E941A141D830C8381E0DF917B
:10225000CF911F910F91FF90EF900895CF93DF934F
:1022600000D0CDB7DEB769831A8241E050E0BE01ED
:102270006F5F7F4F0E9402110F900F90DF91CF91FF
:102280000895CF93DF93FC01848195814817590706
:1022900078F4C081D181FB0160817181CE01840F0E
:1022A000951F0E942114009719F08C1B9D0B02C0F2
:1022B0008FEF9FEFDF91CF91089540E050E00C94B5
:1022C0004111BF92CF92DF92EF92FF920F931F9333
:1022D000CF93DF936C017B01EA0189012417350755
:1022E00020F48D2FE901042F182F68E472E0C60155
:1022F0000E947210D70114968D919C911597C81762
:10230000D907C8F48017910708F48C01D701ED9123
:10231000FC911197E00FF11FB08010826D917C91BC
:102320006C0F7D1FC6010E94EA10D701ED91FC9150
:10233000E00FF11FB082C601DF91CF911F910F9185
:10234000FF90EF90DF90CF90BF900895FC018081C7
:102350009181009711F00C94EA1360E070E0CB01DA
:1023600008950895A1E21A2EAA1BBB1BFD010DC002
:10237000AA1FBB1FEE1FFF1FA217B307E407F50735
:1023800020F0A21BB30BE40BF50B661F771F881F11
:10239000991F1A9469F760957095809590959B01A7
:1023A000AC01BD01CF010895052E97FB1EF40094EA
:1023B0000E94EB1157FD07D00E94B21107FC03D019
:1023C0004EF40C94EB1150954095309521953F4F6C
:1023D0004F4F5F4F089590958095709561957F4F11
:1023E0008F4F9F4F0895EE0FFF1F0590F491E02D42
:1023F0000994CF93DF938230910510F482E090E04E
:10240000E0919506F091960620E030E0A0E0B0E083
:10241000309739F14081518148175907B8F0481772
:10242000590771F482819381109729F013969C9338
:102430008E9312972CC0909396068093950627C092
:102440002115310531F04217530718F0A901DB01BE
:1024500001C0EF019A01BD01DF010280F381E02D8F
:10246000D7CF21153105F9F0281B390B2430310560
:1024700080F48A819B816115710521F0FB019383B2
:10248000828304C09093960680939506FE0132964F
:1024900044C0FE01E20FF31F819391932250310952
:1024A000398328833AC02091930630919406232BD8
:1024B00041F420910201309103013093940620935E
:1024C000930620910001309101012115310541F45D
:1024D0002DB73EB74091040150910501241B350BE7
:1024E000E0919306F0919406E217F307A0F42E1BF7
:1024F0003F0B2817390778F0AC014E5F5F4F241768
:10250000350748F04E0F5F1F509394064093930693
:102510008193919302C0E0E0F0E0CF01DF91CF9191
:102520000895CF93DF93009709F487C0FC01329799
:1025300013821282C0919506D0919606209781F45D
:1025400020813181280F391F809193069091940644
:102550008217930779F5F0939406E09393066DC084
:10256000DE0120E030E0AE17BF0750F412964D9127
:102570005C9113979D014115510509F1DA01F3CFE3
:10258000B383A28340815181840F951F8A179B07D3
:1025900071F48D919C911197840F951F02969183F0
:1025A000808312968D919C9113979383828321153A
:1025B000310529F4F0939606E09395063EC0D901C3
:1025C0001396FC93EE9312974D915D91A40FB51F56
:1025D000EA17FB0779F480819181840F951F029699
:1025E000D90111969C938E938281938113969C932B
:1025F0008E931297E0E0F0E08A819B81009719F0BA
:10260000FE01EC01F9CFCE01029628813981820FBB
:10261000931F20919306309194062817390769F487
:10262000309729F4109296061092950602C01382F4
:102630001282D0939406C0939306DF91CF910895B0
:10264000A0E0B0E0E6E2F3E10C945414EC01CB011D
:10265000209719F40E94F911B8C0FE01E60FF71F88
:102660009E0122503109E217F30708F4ACC0D901EA
:102670000D911C91119706171707B8F00530110539
:1026800008F49FC0A801445051094617570708F4A1
:1026900098C002501109061B170B019311936D93FB
:1026A0007C93CF010E9491128CC05B01A01AB10AE9
:1026B0004E01800E911EA0919506B0919606612C58
:1026C000712C60E070E0109709F449C0A815B905B5
:1026D000C9F5ED90FC901197670142E0C40ED11C42
:1026E000CA14DB0478F147018A189B08640142E0B0
:1026F000C40ED11C1296BC9012971396AC91B5E003
:10270000CB16D10440F0B282A38391828082D9019A
:102710008D939C9309C00E5F1F4F0E0D1F1DF90175
:1027200011830083EB2DFA2F6115710531F0DB0168
:102730001396FC93EE93129744C0F0939606E093A1
:1027400095063FC06D917C9111976616770608F447
:102750003B01BD0112960D90BC91A02DB4CF6091AC
:1027600093067091940668157905E9F46816790660
:10277000D0F440910001509101014115510541F4FF
:102780004DB75EB76091040170910501461B570B70
:10279000E417F507C0F4F0939406E0939306F9016B
:1027A000918380830EC00E94F9117C01009759F03B
:1027B000A801BE010E941114CE010E949112C7010E
:1027C00004C0CE0102C080E090E0CDB7DEB7EEE0FD
:1027D0000C9470141F93FC0199278827BC01E8947E
:1027E00011911032E9F3193010F01E30C8F31B328A
:1027F00051F01D3249F4689406C00E943B14610FE9
:10280000711D811D911D119110531A30B0F33EF4CA
:1028100090958095709561957F4F8F4F9F4F1F9139
:102820000895FB01DC0102C001900D92415050401F
:10283000D8F70895FB01DC0101900D920020E1F72B
:102840000895FB0151915523A9F0BF01DC014D9181
:1028500045174111E1F759F4CD010190002049F0ED
:102860004D9140154111C9F3FB014111EFCF81E0BA
:1028700090E001970895592F482F372F262F660F84
:10288000771F881F991F660F771F881F991F620F78
:10289000731F841F951F660F771F881F991F089548
:1028A0002F923F924F925F926F927F928F929F9260
:1028B000AF92BF92CF92DF92EF92FF920F931F934E
:1028C000CF93DF93CDB7DEB7CA1BDB0B0FB6F894FF
:1028D000DEBF0FBECDBF09942A88398848885F843F
:1028E0006E847D848C849B84AA84B984C884DF80B0
:1028F000EE80FD800C811B81AA81B981CE0FD11D94
:102900000FB6F894DEBF0FBECDBFED01089510E005
:10291000C6ECD0E004C0FE010E94F5112296C83C2E
:08292000D107C9F7F894FFCFBD
:1029280000009706800063726561746520746370A7
:10293800206F6B0063726561746520746370206535
:1029480072726F72003139322E3136382E312E3193
:10295800303000564D4450565F317C315F564D44FF
:1029680050560D0A006162633132333435360054F3
:1029780069616E5368616E6752656E4A69616E007F
:102988004A4F494E205375636365656421204C6F37
:1029980063616C2049503A004A4F494E20535349CD
:1029A80044203A006661696C7572650048656C6C14
:1029B8006F20546869732069732061726475696E49
:1029C8006F20636C69656E74200A000000000006C1
:1029D80002140F7102E701590258022B4950442C86
:1029E8000041540041542B5253540041542B474D3D
:1029F800520041542B43574D4F44453F000D0A0D9B
:102A08000A4F4B002B43574D4F44453A0041542B36
:102A180043574D4F44453D006E6F206368616E67B4
:102A2800650041542B43574A41503D2200222C2235
:102A3800004641494C0041542B43574C41500041FA
:102A4800542B43575141500041542B435753415045
:102A58003D2200222C004552524F520041542B4334
:102A6800574C4946000D0D0A0041542B4349505319
:102A78005441545553005354415455533A0041540A
:102A88002B43495053544152543D2200414C524526
:102A980041445920434F4E4E45435400544350003F
:102AA8005544500041542B43495053544152543DCE
:102AB8000041542B43495053454E443D003E00537A
:102AC800454E44204F4B0041542B434950434C4FF3
:102AD80053453D006C696E6B206973206E6F7400FE
:102AE80041542B434950434C4F53450041542B43C9
:102AF800494653520041542B4349504D55583D00C7
:102B08004C696E6B206973206275696C646564003A
:102B180041542B4349505345525645523D312C00A0
:102B280041542B4349505345525645523D3000417C
:102B3800542B43495053544F3D00564D4450435F26
:102B4800005F564D4450430D0A004572726F723A49
:102B580020417474656D707420746F2073657420DF
:102B68006120726561642D6F6E6C7920766172697F
:102B780061626C65206F7220646174612074797081
:102B880065206E6F7420737570706F727465640D54
:102B98000A0000000000980D140F1A0D330D250DC2
:102BA800760D6E616E00696E66006F7666002E00A7
:00000001FF
