:100000000C9458000C9480000C9480000C94800098
:100010000C9480000C9480000C9480000C94800060
:100020000C9480000C9480000C9480000C94800050
:100030000C9480000C9480000C9480000C94800040
:100040000C942F030C9480000C94FD020C94D702A6
:100050000C9480000C9480000C9480000C94800020
:100060000C9479030C948000000000002500280007
:100070002B00040404040404040402020202020229
:10008000030303030303010204081020408001025C
:1000900004081020010204081020000000080002DB
:1000A0000100000304070000000000000000A70496
:1000B00011241FBECFEFD8E0DEBFCDBF11E0A0E01E
:1000C000B1E0E8EDFCE002C005900D92A833B10765
:1000D000D9F722E0A8E3B1E001C01D92A53BB20729
:1000E000E1F710E0C8E5D0E004C02197FE010E94CE
:1000F0005F06C735D107C9F70E94E0040C946A0671
:100100000C94000090E0FC01E656FF4F2491FC01A6
:10011000EA57FF4F3491FC01EE58FF4FE491EE2374
:10012000B1F1222339F1233091F038F42130A9F0D4
:10013000223001F584B58F7D12C0273091F0283030
:10014000A1F02430B9F4809180008F7D03C08091AC
:1001500080008F77809380000DC084B58F7784BD39
:1001600009C08091B0008F7703C08091B0008F7D6F
:100170008093B000F0E0EE0FFF1FE859FF4FA5910C
:10018000B4918FB7F894EC913E2B3C938FBF0895B8
:10019000CF92DF92EF92FF920F931F93CF93DF9353
:1001A0006C017A018B01C0E0D0E0CE15DF0589F04B
:1001B000D8016D918D01D601ED91FC910190F081F6
:1001C000E02DC6010995892B11F47E0102C021960C
:1001D000ECCFC701DF91CF911F910F91FF90EF906E
:1001E000DF90CF900895FC01918D828D981761F07A
:1001F000828DDF01A80FB11D5D968C91928D9F5F5E
:100200009F73928F90E008958FEF9FEF0895FC0108
:10021000918D828D981731F0828DE80FF11D858DBB
:1002200090E008958FEF9FEF0895FC01918D228D4E
:10023000892F90E0805C9F4F821B91098F739927D3
:1002400008958CE092E00E94150121E0892B09F4C9
:1002500020E0822F0895FC01848DDF01A80FB11DDD
:10026000A35ABF4F2C91848D90E001968F739927EC
:10027000848FA689B7892C93A089B1898C918064D9
:100280008C93938D848D981306C00288F389E02D9A
:1002900080818F7D80830895EF92FF920F931F934B
:1002A000CF93DF93EC0181E0888F9B8D8C8D981329
:1002B00005C0E889F989808185FD24C0F62E0B8D63
:1002C00010E00F5F1F4F0F731127E02E8C8DE81287
:1002D0000CC00FB607FCFACFE889F989808185FF49
:1002E000F5CFCE010E942B01F1CF8B8DFE01E80FDF
:1002F000F11DE35AFF4FF0820B8FEA89FB89808161
:10030000806207C0EE89FF896083E889F98980816E
:100310008064808381E090E0DF91CF911F910F9105
:10032000FF90EF900895CF93DF93EC01888D8823A1
:10033000C9F0EA89FB89808185FD05C0A889B98952
:100340008C9186FD0FC00FB607FCF5CF808185FF2D
:10035000F2CFA889B9898C9185FFEDCFCE010E949B
:100360002B01E7CFDF91CF91089580E090E0892BBA
:1003700029F00E94210181110C94000008953FB7DB
:10038000F8948091800190918101A0918201B091B7
:10039000830126B5A89B05C02F3F19F00196A11D2A
:1003A000B11D3FBFBA2FA92F982F8827820F911D0B
:1003B000A11DB11DBC01CD0142E0660F771F881F52
:1003C000991F4A95D1F708958F929F92AF92BF924D
:1003D000CF92DF92EF92FF926B017C010E94BF01EE
:1003E0004B015C01C114D104E104F104F1F00E945D
:1003F000BF01DC01CB0188199909AA09BB09883E14
:100400009340A105B10570F321E0C21AD108E108BB
:10041000F10888EE880E83E0981EA11CB11CC1145F
:10042000D104E104F10419F7DDCFFF90EF90DF90E4
:10043000CF90BF90AF909F908F90089585ED80935F
:10044000BC008091BC0084FDFCCF1092E7010895B0
:1004500040915A01262F30E0240F311D2132310501
:10046000DCF42091E7012430C9F4FC0180E090E045
:10047000861758F430915A012191DC01A85CBE4FD7
:10048000A30FB11D2C930196F3CF80915A01680FF1
:1004900060935A0180E0089581E0089582E0089514
:1004A000089581E090E03091890120918801321710
:1004B00010F480E090E091958195910908958091E4
:1004C000890190918801891730F48F5F80938901A9
:1004D00080E090E008958FEF9FEF0895809188016C
:1004E00090E020918901821B91090895CF92DF92BB
:1004F000EF92FF920F931F93CF93DF937C01262FF0
:10050000972F8A018091E801882391F0C62FD72F79
:100510006E01C40ED51ECC15DD0571F06991D701B1
:10052000ED91FC910190F081E02DC7010995F3CF89
:10053000642F822F0E942802C801DF91CF911F9162
:100540000F91FF90EF90DF90CF900895CF93DF93BE
:100550001F92CDB7DEB769832091E8012223D1F045
:1005600020910B02203240F021E030E0FC01338387
:10057000228380E090E015C08091E901E82FF0E04F
:10058000E651FE4F998190838F5F8093E9018093BC
:100590000B0205C061E0CE0101960E94280281E0B5
:1005A00090E00F90DF91CF9108950E9465061F9211
:1005B0000F920FB60F9211242F933F934F935F9397
:1005C0006F937F938F939F93AF93BF93EF93FF931B
:1005D0008CE092E00E942B01FF91EF91BF91AF91CF
:1005E0009F918F917F916F915F914F913F912F914B
:1005F0000F900FBE0F901F9018951F920F920FB67D
:100600000F9211242F938F939F93EF93FF93E09179
:100610001C02F0911D028081E0912202F0912302E0
:1006200082FD12C09081809125028F5F8F7320918F
:100630002602821751F0E0912502F0E0E45FFD4FC1
:10064000958F8093250201C08081FF91EF919F914A
:100650008F912F910F900FBE0F901F9018951F92A2
:100660000F920FB60F9211242F933F938F939F9366
:10067000AF93BF938091840190918501A0918601F1
:10068000B091870130917F0123E0230F2D3720F4B3
:100690000196A11DB11D05C026E8230F0296A11DDC
:1006A000B11D20937F018093840190938501A093D5
:1006B0008601B09387018091800190918101A09182
:1006C0008201B09183010196A11DB11D809380012B
:1006D00090938101A0938201B0938301BF91AF9168
:1006E0009F918F913F912F910F900FBE0F901F9070
:1006F00018951F920F920FB60F9211242F933F93CC
:100700004F935F936F937F938F939F93AF93BF9319
:10071000EF93FF938091B900887F803609F49CC0E5
:1007200068F5883209F45BC090F4803109F454C054
:1007300038F4882309F4F6C0883009F44DC0F6C0B7
:10074000883109F44CC0803209F45DC0EFC08034B8
:1007500009F468C048F4803309F455C0883309F0BF
:10076000E5C08093E501D8C0803509F44FC08835D5
:1007700009F45DC0883409F0D9C0D6C0883909F4BD
:10078000C7C0A8F4883709F467C038F4883609F47C
:1007900063C0803709F460C0C9C0883809F4B8C0A4
:1007A000803909F45FC0803809F0C0C05BC0803B6D
:1007B00009F486C038F4803A09F466C0883A09F42E
:1007C0007FC0B4C0803C09F4A7C0883C09F4A4C031
:1007D000883B09F48AC0AAC08091C20110C09091E0
:1007E000E4018091E301981770F5E091E40181E064
:1007F0008E0F8093E401F0E0ED53FE4F80818093F3
:10080000BB0085EC86C08093E5018EC0E091E401D9
:1008100081E08E0F8093E4018091BB00F0E0ED5306
:10082000FE4F80839091E4018091E3016EC0E091DE
:10083000E40181E08E0F8093E4018091BB00F0E041
:10084000ED53FE4F80838091E60181116DC081E000
:100850008093C10184EA61C083E08093E701109234
:100860007E01CFCF80917E01803208F051C0E091AF
:100870007E0181E08E0F80937E018091BB00F0E0CD
:10088000E25AFE4F8083BDCF85EC8093BC0010926E
:10089000E70180917E01803230F4E0917E01F0E04A
:1008A000E25AFE4F108260917E0170E0E0915C019F
:1008B000F0915D018EE591E0099510927E0136C0C0
:1008C00084E08093E70110925B0110925A01E0915D
:1008D0005801F0915901099580915A01811105C083
:1008E00081E080935A0110923801E0915B0181E030
:1008F0008E0F80935B01F0E0E85CFE4F8081809377
:10090000BB0090915B0180915A01981708F479CF50
:1009100085E88093BC000AC085EC8093BC001092EF
:10092000E70104C01092E5010E941E02FF91EF91C1
:10093000BF91AF919F918F917F916F915F914F91F7
:100940003F912F910F900FBE0F901F901895ECE0E4
:10095000F2E01382128288EE93E0A0E0B0E084839C
:100960009583A683B78324E031E03183208325EC8F
:1009700030E03587248724EC30E03787268720EC69
:1009800030E0318B208B21EC30E0338B228B22EC5A
:1009900030E0358B248B26EC30E0378B268B118EA4
:1009A000128E138E148EE9EAF2E01382128284838F
:1009B0009583A683B78384E191E091838083089532
:1009C000789484B5826084BD84B5816084BD85B52A
:1009D000826085BD85B5816085BD80916E00816036
:1009E00080936E00109281008091810082608093DC
:1009F00081008091810081608093810080918000DE
:100A00008160809380008091B10084608093B10008
:100A10008091B00081608093B00080917A00846002
:100A200080937A0080917A00826080937A0080912E
:100A30007A00816080937A0080917A008068809348
:100A40007A001092C1001092BD011092BE01109266
:100A5000BF011092C00110928B0110928C01109274
:100A60008D0110928E0160ED77E080E090E00E94B1
:100A7000E4018CE092E09093BC018093BB01E09193
:100A80001C02F0911D0282E08083E0911802F09137
:100A900019021082E0911A02F0911B0280E180831A
:100AA00010922402E0912002F091210286E08083DE
:100AB000E0911E02F0911F02808180618083E091AD
:100AC0001E02F0911F02808188608083E0911E02E7
:100AD000F0911F02808180688083E0911E02F09176
:100AE0001F0280818F7D80832FB7F89480918401CD
:100AF00090918501A0918601B09187012FBF40910F
:100B00008B0150918C0160918D0170918E01841B3D
:100B1000950BA60BB70B8197A105B10538F463E0DF
:100B200070E080E090E00E94E401DECF2FB7F894FF
:100B30008091840190918501A0918601B0918701F7
:100B40002FBF80938B0190938C01A0938D01B09364
:100B50008E018091BB019091BC01DC01ED91FC9173
:100B60000280F381E02D41E150E060E271E00995FF
:100B70006AE070E080E090E00E94E40181E0809310
:100B80008F0110928901109288011092E901109250
:100B90000B021092E7018093E6011092C10182E1FD
:100BA0000E94820083E10E9482008091B9008E7FC2
:100BB0008093B9008091B9008D7F8093B90088E45B
:100BC0008093B80085E48093BC00C1E0D4E082E06B
:100BD000F82EEE24EA9403EC11E095EED92E25ECE4
:100BE000C22EC093E801D0930A021092E90110923C
:100BF0000B02E091A902F091AA020280F381E02D9C
:100C000045E050E062E371E089EA92E00995909155
:100C10000B0280910A02913208F042C02091E70154
:100C20002111FCCFF092E701C093E601E092E501CB
:100C30001092E4019093E301AAEEB1E0E3ECF1E05D
:100C40002E2F201B291718F42D912193F9CF1092E4
:100C5000C2019091C201880F892B8093C2018091BB
:100C6000C101813069F41092C1018091C201809369
:100C7000BB008091BC0083FDF8CFC092BC0002C0D5
:100C8000D092BC008091E7018230E1F38091E501D0
:100C90008F3F31F08091E501803211F08091E501C4
:100CA0001092E90110920B021092E80164E670E0E4
:100CB00080E090E00E94E4010E94B50192CFEE0F27
:100CC000FF1F0590F491E02D099481E090E0F894E5
:080CD0000C946A06F894FFCFB2
:100CD800000000004C01C8001501F3000701930152
:100CE80000000000A60276026E025F025102500266
:100CF800564D4450565F317C315F564D4450560D29
:080D08000A0048656C6C6F00E5
:00000001FF
