:100000000C9436000C945E000C945E000C945E0020
:100010000C945E000C945E000C945E000C945E00E8
:100020000C945E000C945E000C945E000C945E00D8
:100030000C945E000C945E000C945E000C945E00C8
:100040000C943C020C945E000C940A020C94E401A3
:100050000C945E000C945E000C945E000C945E00A8
:100060000C945E000C945E008602890311241FBE6E
:10007000CFEFD8E0DEBFCDBF11E0A0E0B1E0E2E419
:10008000FAE002C005900D92AC32B107D9F722E038
:10009000ACE2B1E001C01D92A731B207E1F710E078
:1000A000C5E3D0E004C02197FE010E94DC03C43305
:1000B000D107C9F70E94CE020C9414050C940000DD
:1000C000FC01808191810895ECE6F1E0A089B1897D
:1000D00082E08C93A485B5851C92A685B7858FECAC
:1000E0008C93108EA489B58986E08C93A289B389FC
:1000F0008C9180618C93A289B3898C9188608C9358
:10010000A289B3898C9180688C930288F389E02D51
:1001100080818F7D80830895CF92DF92EF92FF924E
:100120000F931F93CF93DF936C017A018B01C0E093
:10013000D0E0CE15DF0589F0D8016D918D01D60193
:10014000ED91FC910190F081E02DC6010995892B7C
:1001500011F47E0102C02196ECCFC701DF91CF914F
:100160001F910F91FF90EF90DF90CF900895FC01C9
:10017000918D828D981761F0828DDF01A80FB11DDE
:100180005D968C91928D9F5F9F73928F90E0089502
:100190008FEF9FEF0895FC01918D828D981731F0BC
:1001A000828DE80FF11D858D90E008958FEF9FEF10
:1001B0000895FC01918D228D892F90E0805C9F4FE6
:1001C000821B91098F73992708958CE691E00E9414
:1001D000D90021E0892B09F420E0822F0895FC0149
:1001E000848DDF01A80FB11DA35ABF4F2C91848DC0
:1001F00090E001968F739927848FA689B7892C93F5
:10020000A089B1898C9180648C93938D848D98138F
:1002100006C00288F389E02D80818F7D8083089558
:10022000EF92FF920F931F93CF93DF93EC0181E046
:10023000888F9B8D8C8D981305C0E889F989808102
:1002400085FD24C0F62E0B8D10E00F5F1F4F0F733E
:100250001127E02E8C8DE8120CC00FB607FCFACFE8
:10026000E889F989808185FFF5CFCE010E94EF00F2
:10027000F1CF8B8DFE01E80FF11DE35AFF4FF082A5
:100280000B8FEA89FB898081806207C0EE89FF8934
:100290006083E889F98980818064808381E090E0CF
:1002A000DF91CF911F910F91FF90EF900895CF9321
:1002B000DF93EC01888D8823C9F0EA89FB8980816E
:1002C00085FD05C0A889B9898C9186FD0FC00FB640
:1002D00007FCF5CF808185FFF2CFA889B9898C9181
:1002E00085FFEDCFCE010E94EF00E7CFDF91CF91E8
:1002F000089580E090E0892B29F00E94E5008111AB
:100300000C94000008953FB7F89480912D019091CE
:100310002E01A0912F01B091300126B5A89B05C0F8
:100320002F3F19F00196A11DB11D3FBFBA2FA92F74
:10033000982F8827820F911DA11DB11DBC01CD01F1
:1003400042E0660F771F881F991F4A95D1F70895DD
:100350008F929F92AF92BF92CF92DF92EF92FF92D5
:100360006B017C010E9483014B015C01C114D1042B
:10037000E104F104F1F00E948301DC01CB01881952
:100380009909AA09BB09883E9340A105B10570F3FC
:1003900021E0C21AD108E108F10888EE880E83E056
:1003A000981EA11CB11CC114D104E104F10419F779
:1003B000DDCFFF90EF90DF90CF90BF90AF909F90F8
:1003C0008F9008950E940F051F920F920FB60F9203
:1003D00011242F933F934F935F936F937F938F934A
:1003E0009F93AF93BF93EF93FF938CE691E00E94AE
:1003F000EF00FF91EF91BF91AF919F918F917F910E
:100400006F915F914F913F912F910F900FBE0F9081
:100410001F9018951F920F920FB60F9211242F93D1
:100420008F939F93EF93FF93E0917C01F0917D0177
:100430008081E0918201F091830182FD12C0908160
:10044000809185018F5F8F7320918601821751F013
:10045000E0918501F0E0E459FE4F958F809385018E
:1004600001C08081FF91EF919F918F912F910F900B
:100470000FBE0F901F9018951F920F920FB60F92FC
:1004800011242F933F938F939F93AF93BF938091AA
:10049000310190913201A0913301B091340130913A
:1004A0002C0123E0230F2D3720F40196A11DB11D4F
:1004B00005C026E8230F0296A11DB11D20932C0133
:1004C0008093310190933201A0933301B0933401B2
:1004D00080912D0190912E01A0912F01B0913001BA
:1004E0000196A11DB11D80932D0190932E01A09323
:1004F0002F01B0933001BF91AF919F918F913F91A8
:100500002F910F900FBE0F901F901895CF93DF93F0
:10051000ECE6F1E01382128288EE93E0A0E0B0E016
:1005200084839583A683B7838AE091E09183808357
:1005300085EC90E09587848784EC90E097878687A8
:1005400080EC90E0918B808B81EC90E0938B828BA0
:1005500082EC90E0958B848B86EC90E0978B868B79
:10056000118E128E138E148EC9E0D2E01E821D826F
:1005700086E090E00E94E203FC0111821082138267
:100580001282158214829A8389839C838B8380E6EE
:1005900090E099878887DF91CF910895789484B50A
:1005A000826084BD84B5816084BD85B5826085BD6F
:1005B00085B5816085BD80916E00816080936E00FD
:1005C00010928100809181008260809381008091EF
:1005D00081008160809381008091800081608093A0
:1005E00080008091B10084608093B1008091B00060
:1005F00081608093B00080917A00846080937A005B
:1006000080917A00826080937A0080917A00816084
:1006100080937A0080917A00806880937A001092AB
:10062000C100109268011092690110926A01109243
:100630006B0110923601109237011092380110921E
:10064000390160ED77E080E090E00E94A8018CE63F
:1006500091E090936701809366010E9464002FB738
:10066000F8948091310190913201A0913301B091C1
:1006700034012FBF4091360150913701609138010C
:1006800070913901841B950BA60BB70B8197A105BF
:10069000B10538F463E070E080E090E00E94A801CA
:1006A000DECF2FB7F8948091310190913201A09163
:1006B0003301B09134012FBF8093360190933701FD
:1006C000A0933801B0933901809166019091670140
:1006D000DC01ED91FC910280F381E02D41E150E0DD
:1006E00066E171E009956AE070E080E090E00E94C8
:1006F000A80181E080933A010E94640043E050E049
:1007000068E271E08CE691E00E948C000E94790121
:10071000FDCFCF93DF9380910E0290910F02E09175
:100720000A02F0910B02892B79F10280F381E02D0E
:10073000F0930B02E0930A020190F081E02DC48156
:10074000D581209739F08A819B810E947704CE0160
:100750000E947704E0910A02F0910B02808191815E
:10076000009711F00E947704E0910A02F0910B02C9
:100770001182108280910E0290910F020197909346
:100780000F0280930E02C7CFC481D581209739F024
:100790008A819B810E947704CE010E947704809118
:1007A0000A0290910B02009721F0DF91CF910C94F7
:1007B0007704DF91CF910895EE0FFF1F0590F4911C
:1007C000E02D0994CF93DF938230910510F482E0FD
:1007D00090E0E0911502F091160220E030E0C0E0D8
:1007E000D0E0309711F14081518148175907C0F08E
:1007F0004817590761F482819381209719F09B83F0
:100800008A832BC0909316028093150226C021156F
:10081000310519F04217530718F49A01BE01DF01A0
:10082000EF010280F381E02DDCCF2115310509F1C4
:10083000281B390B2430310590F412968D919C9130
:1008400013976115710521F0FB019383828304C026
:100850009093160280931502FD01329644C0FD016B
:10086000E20FF31F81939193225031092D933C9312
:100870003AC02091130230911402232B41F42091AD
:10088000020130910301309314022093130220914E
:100890000001309101012115310541F42DB73EB71A
:1008A0004091040150910501241B350BE091130286
:1008B000F0911402E217F307A0F42E1B3F0B281748
:1008C000390778F0AC014E5F5F4F2417350748F0C9
:1008D0004E0F5F1F50931402409313028193919324
:1008E00002C0E0E0F0E0CF01DF91CF9108950F93D7
:1008F0001F93CF93DF93009709F48CC0FC013297CC
:100900001382128200911502109116020115110531
:1009100081F420813181820F931F20911302309145
:1009200014022817390779F5F0931402E0931302A3
:1009300071C0D80140E050E0AE17BF0750F41296E6
:100940002D913C911397AD012115310509F1D90184
:10095000F3CF9D01DA013383228360817181860F99
:10096000971F8217930769F4EC0128813981260FBC
:10097000371F2E5F3F4F318320838A819B81938372
:100980008283452B29F4F0931602E093150242C0AE
:100990001396FC93EE931297ED01499159919E01A4
:1009A000240F351FE217F30771F480819181840FC2
:1009B000951F029611969C938E9382819381139634
:1009C0009C938E931297E0E0F0E0D80112968D91FF
:1009D0009C911397009719F0F8018C01F6CF8D9137
:1009E0009C9198012E5F3F4F820F931F209113021D
:1009F000309114022817390769F4309729F41092BE
:100A000016021092150202C0138212821093140271
:100A100000931302DF91CF911F910F91089581E010
:100A200090E0F8940C94140510E0C5E3D0E004C005
:100A3000FE010E94DC032196C633D107C9F7F89462
:020A4000FFCFE6
:100A42000000170280000000000010018C00D90095
:100A5200B700CB005701564D4450565F317C315F91
:0C0A6200564D4450560D0A0063616F00B1
:00000001FF
