:100000000C945D000C9485000C9485000C94850084
:100010000C9485000C9485000C9485000C9485004C
:100020000C9485000C9485000C9485000C9485003C
:100030000C9485000C9485000C9485000C9485002C
:100040000C94F7020C9485000C94C5020C949F024A
:100050000C9485000C9485000C9485000C9485000C
:100060000C9485000C94850000000008000201003B
:100070000003040700000000000000000000000072
:10008000250028002B0000000000240027002A0083
:10009000040404040404040402020202020203032E
:1000A0000303030301020408102040800102040836
:1000B0001020010204081020410311241FBECFEFBD
:1000C000D8E0DEBFCDBF11E0A0E0B1E0EAE8F9E0A2
:1000D00002C005900D92A232B107D9F722E0A2E248
:1000E000B1E001C01D92A230B207E1F710E0CDE50A
:1000F000D0E004C02197FE010E94B804CC35D1079E
:10010000C9F70E9497030C94C3040C94000090E07C
:10011000FC01EC55FF4F2491FC01E057FF4F849107
:10012000882399F090E0880F991FFC01EA57FF4F50
:10013000A591B491FC01E458FF4F859194918FB73C
:10014000F894EC91E22BEC938FBF0895E2E6F1E096
:10015000A089B18982E08C93A485B5851C92A6857F
:10016000B7858FEC8C93108EA489B58986E08C932B
:10017000A289B3898C9180618C93A289B3898C9177
:1001800088608C93A289B3898C9180688C93028853
:10019000F389E02D80818F7D80830895CF92DF9257
:1001A000EF92FF920F931F93CF93DF936C017A012D
:1001B0008B01C0E0D0E0CE15DF0589F0D8016D914C
:1001C0008D01D601ED91FC910190F081E02DC601E9
:1001D0000995892B11F47E0102C02196ECCFC7014D
:1001E000DF91CF911F910F91FF90EF90DF90CF9013
:1001F0000895FC01918D828D981761F0828DDF0149
:10020000A80FB11D5D968C91928D9F5F9F73928F09
:1002100090E008958FEF9FEF0895FC01918D828DFE
:10022000981731F0828DE80FF11D858D90E00895CB
:100230008FEF9FEF0895FC01918D228D892F90E023
:10024000805C9F4F821B91098F739927089582E6E6
:1002500091E00E941B0121E0892B09F420E0822F0C
:100260000895FC01848DDF01A80FB11DA35ABF4F73
:100270002C91848D90E001968F739927848FA689A5
:10028000B7892C93A089B1898C9180648C93938DCC
:10029000848D981306C00288F389E02D80818F7DBC
:1002A00080830895EF92FF920F931F93CF93DF9374
:1002B000EC0181E0888F9B8D8C8D981305C0E889B7
:1002C000F989808185FD24C0F62E0B8D10E00F5F2B
:1002D0001F4F0F731127E02E8C8DE8120CC00FB644
:1002E00007FCFACFE889F989808185FFF5CFCE0137
:1002F0000E943101F1CF8B8DFE01E80FF11DE35A11
:10030000FF4FF0820B8FEA89FB898081806207C0F2
:10031000EE89FF896083E889F98980818064808320
:1003200081E090E0DF91CF911F910F91FF90EF90CE
:100330000895CF93DF93EC01888D8823C9F0EA8973
:10034000FB89808185FD05C0A889B9898C9186FDCE
:100350000FC00FB607FCF5CF808185FFF2CFA889CB
:10036000B9898C9185FFEDCFCE010E943101E7CF95
:10037000DF91CF91089580E090E0892B29F00E94D1
:10038000270181110C940000089590E0FC01E859C8
:10039000FF4F3491FC01EC55FF4F2491FC01E057D5
:1003A000FF4FE491EE2309F43BC0332339F133309E
:1003B00091F038F43130A9F0323001F584B58F7DF9
:1003C00012C0373091F03830A1F03430B9F4809158
:1003D00080008F7D03C0809180008F7780938000A4
:1003E0000DC084B58F7784BD09C08091B0008F7730
:1003F00003C08091B0008F7D8093B000F0E0EE0FDD
:10040000FF1FE458FF4FA591B4918FB7F894EC917A
:10041000611103C020952E2301C02E2B2C938FBF7A
:100420000895CF93DF9360E08CE00E94C50160E007
:1004300088E00E94C501C7E0D0E060E084E00E944F
:10044000C5018091FF0190E00C2E02C09595879523
:100450000A94E2F780FF02C061E001C060E088E03A
:100460000E94C50161E084E00E94C501219728F740
:1004700061E08CE0DF91CF910C94C5013FB7F89417
:100480008091230190912401A0912501B091260132
:1004900026B5A89B05C02F3F19F00196A11DB11DDF
:1004A0003FBFBA2FA92F982F8827820F911DA11D1A
:1004B000B11DBC01CD0142E0660F771F881F991F57
:1004C0004A95D1F708958F929F92AF92BF92CF92A3
:1004D000DF92EF92FF926B017C010E943E024B0182
:1004E0005C01C114D104E104F104F1F00E943E0268
:1004F000DC01CB0188199909AA09BB09883E934000
:10050000A105B10570F321E0C21AD108E108F10894
:1005100088EE880E83E0981EA11CB11CC114D10482
:10052000E104F10419F7DDCFFF90EF90DF90CF9059
:10053000BF90AF909F908F9008950E94BE041F922D
:100540000F920FB60F9211242F933F934F935F9307
:100550006F937F938F939F93AF93BF93EF93FF938B
:1005600082E691E00E943101FF91EF91BF91AF913E
:100570009F918F917F916F915F914F913F912F91BB
:100580000F900FBE0F901F9018951F920F920FB6ED
:100590000F9211242F938F939F93EF93FF93E091EA
:1005A0007201F09173018081E0917801F0917901FD
:1005B00082FD12C0908180917B018F5F8F732091AB
:1005C0007C01821751F0E0917B01F0E0EE59FE4F83
:1005D000958F80937B0101C08081FF91EF919F9166
:1005E0008F912F910F900FBE0F901F9018951F9213
:1005F0000F920FB60F9211242F933F938F939F93D7
:10060000AF93BF938091270190912801A091290178
:10061000B0912A013091220123E0230F2D3720F4DD
:100620000196A11DB11D05C026E8230F0296A11D4C
:10063000B11D209322018093270190932801A0935C
:100640002901B0932A018091230190912401A09166
:100650002501B09126010196A11DB11D80932301B2
:1006600090932401A0932501B0932601BF91AF91EF
:100670009F918F913F912F910F900FBE0F901F90E0
:100680001895CF93E2E6F1E01382128288EE93E0B0
:10069000A0E0B0E084839583A683B78384E091E0F3
:1006A0009183808385EC90E09587848784EC90E04B
:1006B0009787868780EC90E0918B808B81EC90E02F
:1006C000938B828B82EC90E0958B848B86EC90E010
:1006D000978B868B118E128E138E148EE0E0F2E0D3
:1006E00081E08083C2E0C1838CE00E94870087E0C4
:1006F0000E94870088E00E94870084E00E948700B3
:100700001092FF010E94110260E087E00E94C50183
:100710000E941102E0EBF0E0808183688083C09347
:10072000B1001092B3008BE0CF910C9487007894C5
:1007300084B5826084BD84B5816084BD85B58260E6
:1007400085BD85B5816085BD80916E008160809397
:100750006E00109281008091810082608093810000
:100760008091810081608093810080918000816010
:10077000809380008091B10084608093B10080916B
:10078000B00081608093B00080917A008460809393
:100790007A0080917A00826080937A0080917A005A
:1007A000816080937A0080917A00806880937A00DB
:1007B0001092C10010925E0110925F0110926001D0
:1007C0001092610110922C0110922D0110922E01B5
:1007D00010922F0160ED77E080E090E00E946302CC
:1007E00082E691E090935D0180935C010E94A600F7
:1007F0002FB7F8948091270190912801A0912901A9
:10080000B0912A012FBF40912C0150912D01609190
:100810002E0170912F01841B950BA60BB70B8197AE
:10082000A105B10538F463E070E080E090E00E943B
:100830006302DECF2FB7F8948091270190912801B1
:10084000A0912901B0912A012FBF80932C01909390
:100850002D01A0932E01B0932F0180915C01909106
:100860005D01DC01ED91FC910280F381E02D41E11D
:1008700050E060E171E009956AE070E080E090E0AE
:100880000E94630281E0809330010E94A600809163
:100890000002823069F028F4813029F543E082E0DB
:1008A0000CC0833041F08430F1F446E080E005C0B4
:1008B00044E081E002C047E085E021E030E0B9019A
:1008C00002C0660F771F8A95E2F7CB0101C0220FA5
:1008D0004A95EAF7822B80959091FF0189238093B6
:1008E000FF010E941102C8EC01E010E080910002BB
:1008F000823061F028F4813069F4C093B3000AC0FB
:10090000833039F0843031F4C8BD04C0C093B400E2
:1009100001C0C7BD80910002823069F028F48130A7
:1009200021F583E092E00CC0833041F08430E9F49B
:1009300086E090E005C084E091E002C087E095E0A9
:10094000980101C0220F9A95EAF720959091FF0136
:100950002923D80102C0AA0FBB1F8A95E2F7CD0157
:10096000822B8093FF010E9411020E94BB01BECF27
:10097000EE0FFF1F0590F491E02D099481E090E0C7
:0A098000F8940C94C304F894FFCF20
:10098A00000000005201CE001B01F9000D0199017F
:10099A00564D4450565F317C315F564D4450560D8A
:0209AA000A0041
:00000001FF
