:100000000C9462000C948A000C948A000C948A0070
:100010000C948A000C948A000C948A000C948A0038
:100020000C948A000C948A000C948A000C948A0028
:100030000C948A000C948A000C948A000C948A0018
:100040000C947B030C948A000C9449030C942303B6
:100050000C948A000C948A000C948A000C948A00F8
:100060000C948A000C948A000000000024002700F1
:100070002A000000000023002600290000000000E4
:10008000250028002B0004040404040404040202D4
:100090000202020203030303030301020408102007
:1000A0004080010204081020010204081020000012
:1000B0000008000201000003040700000000000027
:1000C0000000C50311241FBECFEFD8E0DEBFCDBFB7
:1000D00011E0A0E0B1E0E6E5FAE002C005900D9283
:1000E000A632B107D9F722E0A6E2B1E001C01D9225
:1000F000A630B207E1F710E0C2E6D0E004C02197D5
:10010000FE010E941E05C136D107C9F70E940904ED
:100110000C9429050C940000CF92DF92EF92FF928D
:100120000F931F93CF93DF936C017A018B01C0E093
:10013000D0E0CE15DF0589F0D8016D918D01D60193
:10014000ED91FC910190F081E02DC6010995892B7C
:1001500011F47E0102C02196ECCFC701DF91CF914F
:100160001F910F91FF90EF90DF90CF900895FC01C9
:10017000918D828D981761F0828DDF01A80FB11DDE
:100180005D968C91928D9F5F9F73928F90E0089502
:100190008FEF9FEF0895FC01918D828D981731F0BC
:1001A000828DE80FF11D858D90E008958FEF9FEF10
:1001B0000895FC01918D228D892F90E0805C9F4FE6
:1001C000821B91098F739927089586E691E00E941A
:1001D000D90021E0892B09F420E0822F0895FC0149
:1001E000848DDF01A80FB11DA35ABF4F2C91848DC0
:1001F00090E001968F739927848FA689B7892C93F5
:10020000A089B1898C9180648C93938D848D98138F
:1002100006C00288F389E02D80818F7D8083089558
:10022000EF92FF920F931F93CF93DF93EC0181E046
:10023000888F9B8D8C8D981305C0E889F989808102
:1002400085FD24C0F62E0B8D10E00F5F1F4F0F733E
:100250001127E02E8C8DE8120CC00FB607FCFACFE8
:10026000E889F989808185FFF5CFCE010E94EF00F2
:10027000F1CF8B8DFE01E80FF11DE35AFF4FF082A5
:100280000B8FEA89FB898081806207C0EE89FF8934
:100290006083E889F98980818064808381E090E0CF
:1002A000DF91CF911F910F91FF90EF900895CF9321
:1002B000DF93EC01888D8823C9F0EA89FB8980816E
:1002C00085FD05C0A889B9898C9186FD0FC00FB640
:1002D00007FCF5CF808185FFF2CFA889B9898C9181
:1002E00085FFEDCFCE010E94EF00E7CFDF91CF91E8
:1002F000089580E090E0892B29F00E94E5008111AB
:100300000C9400000895833081F028F4813099F036
:100310008230A1F008958730A9F08830B9F0843098
:10032000D1F4809180008F7D03C0809180008F7711
:1003300080938000089584B58F7702C084B58F7D47
:1003400084BD08958091B0008F7703C08091B00084
:100350008F7D8093B0000895CF93DF93282F30E0F6
:10036000F901E255FF4F8491F901E656FF4FD49110
:10037000F901EA57FF4FC491CC2399F081110E94F3
:100380008301EC2FF0E0EE0FFF1FE458FF4FA59123
:10039000B4918FB7F8949C91ED2FE095E923EC93FD
:1003A0008FBFDF91CF910895CF93DF9390E0FC0151
:1003B000E656FF4F2491FC01EA57FF4F84918823B2
:1003C00061F190E0880F991FFC01E859FF4FC5913A
:1003D000D491FC01E458FF4FA591B491611109C07B
:1003E0009FB7F8948881209582238883EC912E23EF
:1003F0000BC0623061F49FB7F8943881822F8095EA
:1004000083238883EC912E2B2C939FBF06C08FB73C
:10041000F894E8812E2B28838FBFDF91CF91089528
:100420000F931F93CF93DF9303E012E061E0F80195
:1004300081810E94D401C3ECD0E0CE010197F1F795
:1004400060E0F80180810E94D401CE010197F1F7AC
:1004500060E0F80181810E94D4012197F1F7DF91DA
:10046000CF911F910F910895EF92FF920F931F93D9
:10047000CF93DF93082F18E093ECE92EF12C61E085
:10048000809103020E94D401C7010197F1F700FF98
:1004900002C060E001C061E0809104020E94D401CA
:1004A000C3ECD0E0C7010197F1F760E0809103024F
:1004B0000E94D401C7010197F1F706951150F9F692
:1004C00061E0809103020E94D40160E08091040207
:1004D0000E94D401CE010197F1F760E08091030200
:1004E0000E94D4012197F1F72091040230E0F90134
:1004F000E255FF4F8491F901E656FF4FD491F9017F
:10050000EA57FF4FC491CC23A1F081110E948301CF
:10051000EC2FF0E0EE0FFF1FEE58FF4FA591B491C6
:10052000EC91ED2391E080E009F490E0C92FD82F01
:1005300002C0C0E0D0E0209729F461E0809104027D
:100540000E94D40103EC10E0C8010197F1F761E0CB
:10055000809103020E94D401C8010197F1F78C2F0A
:100560008170DF91CF911F910F91FF90EF900895CF
:1005700061E0809104020E94D40183EC90E0019735
:10058000F1F708953FB7F8948091270190912801E1
:10059000A0912901B0912A0126B5A89B05C02F3F43
:1005A00019F00196A11DB11D3FBFBA2FA92F982F99
:1005B0008827820F911DA11DB11DBC01CD0142E014
:1005C000660F771F881F991F4A95D1F708958F925C
:1005D0009F92AF92BF92CF92DF92EF92FF926B0108
:1005E0007C010E94C2024B015C01C114D104E104F0
:1005F000F104F1F00E94C202DC01CB0188199909D3
:10060000AA09BB09883E9340A105B10570F321E01A
:10061000C21AD108E108F10888EE880E83E0981E1E
:10062000A11CB11CC114D104E104F10419F7DDCF00
:10063000FF90EF90DF90CF90BF90AF909F908F9002
:1006400008950E9424051F920F920FB60F92112455
:100650002F933F934F935F936F937F938F939F93CA
:10066000AF93BF93EF93FF9386E691E00E94EF0074
:10067000FF91EF91BF91AF919F918F917F916F917A
:100680005F914F913F912F910F900FBE0F901F9050
:1006900018951F920F920FB60F9211242F938F93DC
:1006A0009F93EF93FF93E0917601F0917701808122
:1006B000E0917C01F0917D0182FD12C090818091DA
:1006C0007F018F5F8F7320918001821751F0E0913D
:1006D0007F01F0E0EA59FE4F958F80937F0101C0C2
:1006E0008081FF91EF919F918F912F910F900FBE7D
:1006F0000F901F9018951F920F920FB60F92112412
:100700002F933F938F939F93AF93BF9380912B0130
:1007100090912C01A0912D01B0912E0130912601D4
:1007200023E0230F2D3720F40196A11DB11D05C034
:1007300026E8230F0296A11DB11D20932601809368
:100740002B0190932C01A0932D01B0932E01809149
:10075000270190912801A0912901B0912A010196C9
:10076000A11DB11D8093270190932801A093290119
:10077000B0932A01BF91AF919F918F913F912F919B
:100780000F900FBE0F901F901895CF93DF93E6E662
:10079000F1E01382128288EE93E0A0E0B0E084835F
:1007A0009583A683B78388E091E09183808385EC6D
:1007B00090E09587848784EC90E09787868780EC2B
:1007C00090E0918B808B81EC90E0938B828B82EC1C
:1007D00090E0958B848B86EC90E0978B868B118EC6
:1007E000128E138E148EC3E0D2E084E0888383E0FF
:1007F000898360E084E00E94D40160E089810E94E6
:10080000D40188810E94AC018981DF91CF910C9441
:10081000AC01789484B5826084BD84B5816084BD68
:1008200085B5826085BD85B5816085BD80916E008E
:10083000816080936E0010928100809181008260BF
:1008400080938100809181008160809381008091FC
:1008500080008160809380008091B10084608093EB
:10086000B1008091B00081608093B00080917A00E7
:10087000846080937A0080917A00826080937A000D
:1008800080917A00816080937A0080917A008068FC
:1008900080937A001092C10010926201109263015D
:1008A0001092640110926501109230011092310192
:1008B000109232011092330160ED77E080E090E019
:1008C0000E94E70286E691E09093610180936001C7
:1008D000E0917601F091770182E08083E0917201EE
:1008E000F09173011082E0917401F091750180E143
:1008F000808310927E01E0917A01F0917B0186E085
:100900008083E0917801F09179018081806180831A
:10091000E0917801F0917901808188608083E09195
:100920007801F0917901808180688083E09178017D
:10093000F091790180818F7D80832FB7F894809129
:100940002B0190912C01A0912D01B0912E012FBF70
:100950004091300150913101609132017091330129
:10096000841B950BA60BB70B8197A105B10538F435
:1009700063E070E080E090E00E94E702DECF2FB7F6
:10098000F89480912B0190912C01A0912D01B091B0
:100990002E012FBF8093300190933101A09332013B
:1009A000B09333018091600190916101DC01ED9180
:1009B000FC910280F381E02D41E150E064E171E0BF
:1009C00009956AE070E080E090E00E94E70281E033
:1009D00080933401CFE0C09305020E94B80280E406
:1009E0000E9434020E9410020E94B80280EC0E9411
:1009F0003402809100010E943402809101010E9422
:100A00003402809102010E943402809103010E940D
:100A100034020E9410020E94B802809105028F7079
:100A200080580E9434020E94100260ED77E080E05E
:100A300090E00E94E7020E947901CDCFEE0FFF1FE8
:100A40000590F491E02D099481E090E0F8940C94E5
:060A50002905F894FFCF18
:100A5600402010080000000010018C00D900B700EB
:100A6600CB005701564D4450565F317C315F564D91
:060A76004450560D0A0079
:00000001FF
