:100000000C9458000C9480000C9480000C94800098
:100010000C9480000C9480000C9480000C94800060
:100020000C9480000C9480000C9480000C94800050
:100030000C9480000C9480000C9480000C94800040
:100040000C946C030C9480000C943A030C941403ED
:100050000C9480000C9480000C9480000C94800020
:100060000C94B6030C9480000000000025002800CA
:100070002B00040404040404040402020202020229
:10008000030303030303010204081020408001025C
:1000900004081020010204081020000000080002DB
:1000A0000100000304070000000000000000E40459
:1000B00011241FBECFEFD8E0DEBFCDBF11E0A0E01E
:1000C000B1E0E8E8FDE002C005900D92A436B1076A
:1000D000D9F722E0A4E6B1E001C01D92A13EB2072B
:1000E000E1F710E0C8E5D0E004C02197FE010E94CE
:1000F000B706C735D107C9F70E941D050C94C20683
:100100000C940000E8E3F2E0A089B18982E08C93CE
:10011000A485B5851C92A685B7858FEC8C93108E2F
:10012000A489B58986E08C93A289B3898C9180617A
:100130008C93A289B3898C9188608C93A289B389AE
:100140008C9180688C930288F389E02D80818F7D6B
:100150008083089590E0FC01E656FF4F2491FC0156
:10016000EA57FF4F3491FC01EE58FF4FE491EE2324
:10017000B1F1222339F1233091F038F42130A9F084
:10018000223001F584B58F7D12C0273091F02830E0
:10019000A1F02430B9F4809180008F7D03C080915C
:1001A00080008F77809380000DC084B58F7784BDE9
:1001B00009C08091B0008F7703C08091B0008F7D1F
:1001C0008093B000F0E0EE0FFF1FE859FF4FA591BC
:1001D000B4918FB7F894EC913E2B3C938FBF089568
:1001E000CF92DF92EF92FF920F931F93CF93DF9303
:1001F0006C017A018B01C0E0D0E0CE15DF0589F0FB
:10020000D8016D918D01D601ED91FC910190F081A5
:10021000E02DC6010995892B11F47E0102C02196BB
:10022000ECCFC701DF91CF911F910F91FF90EF901D
:10023000DF90CF900895FC01918D828D981761F029
:10024000828DDF01A80FB11D5D968C91928D9F5F0D
:100250009F73928F90E008958FEF9FEF0895FC01B8
:10026000918D828D981731F0828DE80FF11D858D6B
:1002700090E008958FEF9FEF0895FC01918D228DFE
:10028000892F90E0805C9F4F821B91098F73992783
:10029000089588E392E00E943D0121E0892B09F452
:1002A00020E0822F0895FC01848DDF01A80FB11D8D
:1002B000A35ABF4F2C91848D90E001968F7399279C
:1002C000848FA689B7892C93A089B1898C91806489
:1002D0008C93938D848D981306C00288F389E02D4A
:1002E00080818F7D80830895EF92FF920F931F93FB
:1002F000CF93DF93EC0181E0888F9B8D8C8D9813D9
:1003000005C0E889F989808185FD24C0F62E0B8D12
:1003100010E00F5F1F4F0F731127E02E8C8DE81236
:100320000CC00FB607FCFACFE889F989808185FFF8
:10033000F5CFCE010E945301F1CF8B8DFE01E80F66
:10034000F11DE35AFF4FF0820B8FEA89FB89808110
:10035000806207C0EE89FF896083E889F98980811E
:100360008064808381E090E0DF91CF911F910F91B5
:10037000FF90EF900895CF93DF93EC01888D882351
:10038000C9F0EA89FB89808185FD05C0A889B98902
:100390008C9186FD0FC00FB607FCF5CF808185FFDD
:1003A000F2CFA889B9898C9185FFEDCFCE010E944B
:1003B0005301E7CFDF91CF91089580E090E0892B42
:1003C00029F00E94490181110C94000008953FB763
:1003D000F8948091AC019091AD01A091AE01B091E3
:1003E000AF0126B5A89B05C02F3F19F00196A11DAE
:1003F000B11D3FBFBA2FA92F982F8827820F911DBB
:10040000A11DB11DBC01CD0142E0660F771F881F01
:10041000991F4A95D1F708958F929F92AF92BF92FC
:10042000CF92DF92EF92FF926B017C010E94E70175
:100430004B015C01C114D104E104F104F1F00E940C
:10044000E701DC01CB0188199909AA09BB09883E9B
:100450009340A105B10570F321E0C21AD108E1086B
:10046000F10888EE880E83E0981EA11CB11CC1140F
:10047000D104E104F10419F7DDCFFF90EF90DF9094
:10048000CF90BF90AF909F908F90089585ED80930F
:10049000BC008091BC0084FDFCCF10921302089533
:1004A00040918601262F30E0240F311D2132310585
:1004B000DCF4209113022430C9F4FC0180E090E0C8
:1004C000861758F4309186012191DC01AC59BE4F5A
:1004D000A30FB11D2C930196F3CF80918601680F75
:1004E0006093860180E0089581E0089582E0089598
:1004F000089581E090E03091B5012091B401321768
:1005000010F480E090E09195819591090895809193
:10051000B5019091B401891730F48F5F8093B501D4
:1005200080E090E008958FEF9FEF08958091B401EF
:1005300090E02091B501821B91090895CF92DF923E
:10054000EF92FF920F931F93CF93DF937C01262F9F
:10055000972F8A0180911402882391F0C62FD72FFC
:100560006E01C40ED51ECC15DD0571F06991D70161
:10057000ED91FC910190F081E02DC7010995F3CF39
:10058000642F822F0E945002C801DF91CF911F91EA
:100590000F91FF90EF90DF90CF900895CF93DF936E
:1005A0001F92CDB7DEB76983209114022223D1F0C8
:1005B00020913702203240F021E030E0FC0133830B
:1005C000228380E090E015C080911502E82FF0E0D2
:1005D000EA5EFD4F998190838F5F8093150280932F
:1005E000370205C061E0CE0101960E94500281E011
:1005F00090E00F90DF91CF9108956115710579F02A
:10060000FB0101900020E9F73197AF01461B570B22
:10061000DC01ED91FC910280F381E02D099480E0F2
:1006200090E008950E94BD061F920F920FB60F92A0
:1006300011242F933F934F935F936F937F938F93E7
:100640009F93AF93BF93EF93FF9388E392E00E9451
:100650005301FF91EF91BF91AF919F918F917F9146
:100660006F915F914F913F912F910F900FBE0F901F
:100670001F9018951F920F920FB60F9211242F936F
:100680008F939F93EF93FF93E0914802F09149027B
:100690008081E0914E02F0914F0282FD12C0908164
:1006A000809151028F5F8F7320915202821751F017
:1006B000E0915102F0E0E85CFD4F958F809351028C
:1006C00001C08081FF91EF919F918F912F910F90A9
:1006D0000FBE0F901F9018951F920F920FB60F929A
:1006E00011242F933F938F939F93AF93BF93809148
:1006F000B0019091B101A091B201B091B3013091DC
:10070000AB0123E0230F2D3720F40196A11DB11D6D
:1007100005C026E8230F0296A11DB11D2093AB0151
:100720008093B0019093B101A093B201B093B30153
:100730008091AC019091AD01A091AE01B091AF015B
:100740000196A11DB11D8093AC019093AD01A093C2
:10075000AE01B093AF01BF91AF919F918F913F9147
:100760002F910F900FBE0F901F9018951F920F9210
:100770000FB60F9211242F933F934F935F936F9374
:100780007F938F939F93AF93BF93EF93FF9380914A
:10079000B900887F803609F49CC068F5883209F476
:1007A0005BC090F4803109F454C038F4882309F414
:1007B000F6C0883009F44DC0F6C0883109F44CC049
:1007C000803209F45DC0EFC0803409F468C048F499
:1007D000803309F455C0883309F0E5C080931102D5
:1007E000D8C0803509F44FC0883509F45DC088341D
:1007F00009F0D9C0D6C0883909F4C7C0A8F4883731
:1008000009F467C038F4883609F463C0803709F406
:1008100060C0C9C0883809F4B8C0803909F45FC025
:10082000803809F0C0C05BC0803B09F486C038F452
:10083000803A09F466C0883A09F47FC0B4C0803CAD
:1008400009F4A7C0883C09F4A4C0883B09F48AC015
:10085000AAC08091EE0110C09091100280910F0209
:10086000981770F5E091100281E08E0F80931002CE
:10087000F0E0E151FE4F80818093BB0085EC86C0A3
:10088000809311028EC0E091100281E08E0F809360
:1008900010028091BB00F0E0E151FE4F8083909107
:1008A000100280910F026EC0E091100281E08E0F65
:1008B000809310028091BB00F0E0E151FE4F8083F5
:1008C0008091120281116DC081E08093ED0184EA74
:1008D00061C083E0809313021092AA01CFCF809170
:1008E000AA01803208F051C0E091AA0181E08E0F88
:1008F0008093AA018091BB00F0E0E657FE4F808311
:10090000BDCF85EC8093BC00109213028091AA01A8
:10091000803230F4E091AA01F0E0E657FE4F1082F9
:100920006091AA0170E0E0918801F09189018AE864
:1009300091E009951092AA0136C084E080931302D9
:100940001092870110928601E0918401F091850157
:10095000099580918601811105C081E0809386010F
:1009600010926401E091870181E08E0F80938701EE
:10097000F0E0EC59FE4F80818093BB00909187019D
:1009800080918601981708F479CF85E88093BC00A0
:100990000AC085EC8093BC001092130204C0109230
:1009A00011020E944602FF91EF91BF91AF919F917A
:1009B0008F917F916F915F914F913F912F910F9008
:1009C0000FBE0F901F901895E8E3F2E01382128299
:1009D00088EE93E0A0E0B0E084839583A683B7839C
:1009E00024E031E03183208325EC30E03587248713
:1009F00024EC30E03787268720EC30E0318B208BE9
:100A000021EC30E0338B228B22EC30E0358B248BD1
:100A100026EC30E0378B268B118E128E138E148EBF
:100A2000E5EDF2E01382128284839583A683B78377
:100A300084E191E0918380830895CF93DF93CDB7D4
:100A4000DEB7A1970FB6F894DEBF0FBECDBF789486
:100A500084B5826084BD84B5816084BD85B58260C3
:100A600085BD85B5816085BD80916E008160809374
:100A70006E001092810080918100826080938100DD
:100A800080918100816080938100809180008160ED
:100A9000809380008091B10084608093B100809148
:100AA000B00081608093B00080917A008460809370
:100AB0007A0080917A00826080937A0080917A0037
:100AC000816080937A0080917A00806880937A00B8
:100AD0001092C1001092E9011092EA011092EB010C
:100AE0001092EC011092B7011092B8011092B90166
:100AF0001092BA0160ED77E080E090E00E940C0275
:100B000088E392E09093E8018093E7010E948200DD
:100B10002FB7F8948091B0019091B101A091B201EA
:100B2000B091B3012FBF4091B7015091B8016091CE
:100B3000B9017091BA01841B950BA60BB70B819775
:100B4000A105B10538F463E070E080E090E00E9418
:100B50000C02DECF2FB7F8948091B0019091B101D3
:100B6000A091B201B091B3012FBF8093B7019093D0
:100B7000B801A093B901B093BA0160E271E080912D
:100B8000E7019091E8010E94FD026AE070E080E0D8
:100B900090E00E940C0281E08093BB011092B501AD
:100BA0001092B401109215021092370210921302A3
:100BB000809312021092ED0182E10E94AA0083E16B
:100BC0000E94AA008091B9008E7F8093B900809125
:100BD000B9008D7F8093B90088E48093B80085E4E4
:100BE0008093BC000E94820062E371E088E392E09F
:100BF0000E94FD026FE271E088E392E00E94FD0234
:100C000005EE65ECB62E11E072E0A72E99249A94B9
:100C1000C12CD12C7601C394960110931402C0927A
:100C20003602109215021092370280911302811140
:100C3000FCCFA09213021093120290921102109214
:100C4000100210920F021092EE019091EE01220F0D
:100C5000331F292B2093EE019091ED01913069F41F
:100C60001092ED019091EE019093BB009091BC0029
:100C700093FDF8CFB092BC0002C00093BC009091ED
:100C800013029230E1F3909111029F3F69F080913D
:100C90001102803231F080911102803321F084E022
:100CA00003C082E001C083E0109215021092370267
:100CB00010921402811146C06EE371E088E392E065
:100CC0000E94FD0280E1C816D104E104F10430F471
:100CD0006DE571E088E392E00E94FD0219A2260111
:100CE0003701BE016F5D7F4FD301C2018F7099271D
:100CF000AA27BB2724E076946794579447942A95B3
:100D0000D1F7615071098A309105A105B10510F440
:100D1000805D01C0895CFB01808341145104610442
:100D2000710411F788E392E00E94FD026FE571E023
:100D300088E392E00E94FD026FE271E088E392E0B6
:100D40000E94FD02FFEFCF1ADF0AEF0AFF0A8FE7CA
:100D5000C816D104E104F10409F05ECF68E873E13C
:100D600080E090E00E940C020E94DD0151CFEE0F66
:100D7000FF1F0590F491E02D099481E090E0F89434
:080D80000C94C206F894FFCFA9
:100D8800000000007401F0003D011B012F01BB01B0
:100D980000000000CE029E029602870279027802C5
:100DA800564D4450565F317C315F564D4450560D78
:100DB8000A00493243205363616E6E6572004932FE
:100DC800432064657669636520666F756E6420618B
:100DD8007420616464726573732030780030002079
:040DE8007C2000006B
:00000001FF
