:100000000C945D000C9485000C9485000C94850084
:100010000C9485000C9485000C9485000C9485004C
:100020000C9485000C9485000C9485000C9485003C
:100030000C9485000C9485000C9485000C9485002C
:100040000C94E4030C9485000C94B2030C948C0380
:100050000C9485000C9485000C9485000C9485000C
:100060000C9485000C9485000000000024002700FB
:100070002A0000000000250028002B0004040404CE
:100080000404040402020202020203030303030342
:10009000010204081020408001020408102001021F
:1000A00004081020000000080002010000030407FB
:1000B00000000000000000002E0411241FBECFEF3E
:1000C000D8E0DEBFCDBF11E0A0E0B1E0EAEAF2E1A6
:1000D00002C005900D92AC33B107D9F722E0ACE332
:1000E000B1E001C01D92A133B207E1F710E0CDE508
:1000F000D0E004C02197FE010E94EA06CC35D1076A
:10010000C9F70E9446050C9453090C940000ECE7D3
:10011000F1E0A089B18982E08C93A485B5851C9219
:10012000A685B7858FEC8C93108EA489B58986E05F
:100130008C93A289B3898C9180618C93A289B389B5
:100140008C9188608C93A289B3898C9180688C9300
:100150000288F389E02D80818F7D80830895CF927E
:10016000DF92EF92FF920F931F93CF93DF936C0177
:100170007A018B01C0E0D0E0CE15DF0589F0D8010F
:100180006D918D01D601ED91FC910190F081E02DF2
:10019000C6010995892B11F47E0102C02196ECCF8E
:1001A000C701DF91CF911F910F91FF90EF90DF90EA
:1001B000CF900895FC01918D828D981761F0828D0A
:1001C000DF01A80FB11D5D968C91928D9F5F9F738B
:1001D000928F90E008958FEF9FEF0895FC01918D2D
:1001E000828D981731F0828DE80FF11D858D90E09A
:1001F00008958FEF9FEF0895FC01918D228D892F37
:1002000090E0805C9F4F821B91098F73992708951E
:100210008CE791E00E94FC0021E0892B09F420E0AA
:10022000822F0895FC01848DDF01A80FB11DA35A10
:10023000BF4F2C91848D90E001968F739927848F06
:10024000A689B7892C93A089B1898C9180648C93FD
:10025000938D848D981306C00288F389E02D8081E8
:100260008F7D80830895EF92FF920F931F93CF931A
:10027000DF93EC0181E0888F9B8D8C8D981305C0F6
:10028000E889F989808185FD24C0F62E0B8D10E068
:100290000F5F1F4F0F731127E02E8C8DE8120CC0DB
:1002A0000FB607FCFACFE889F989808185FFF5CF81
:1002B000CE010E941201F1CF8B8DFE01E80FF11DDE
:1002C000E35AFF4FF0820B8FEA89FB8980818062BD
:1002D00007C0EE89FF896083E889F989808180649D
:1002E000808381E090E0DF91CF911F910F91FF908B
:1002F000EF900895CF93DF93EC01888D8823C9F0A8
:10030000EA89FB89808185FD05C0A889B9898C911E
:1003100086FD0FC00FB607FCF5CF808185FFF2CFB9
:10032000A889B9898C9185FFEDCFCE010E94120179
:10033000E7CFDF91CF91089580E090E0892B29F0FD
:100340000E94080181110C940000089590E0FC01C6
:10035000EC55FF4F3491FC01E057FF4F2491FC0115
:10036000E458FF4FE491EE2309F43BC0332339F105
:10037000333091F038F43130A9F0323001F584B5E2
:100380008F7D12C0373091F03830A1F03430B9F49D
:10039000809180008F7D03C0809180008F77809353
:1003A00080000DC084B58F7784BD09C08091B000F6
:1003B0008F7703C08091B0008F7D8093B000F0E014
:1003C000EE0FFF1FEE58FF4FA591B4918FB7F89431
:1003D000EC91611103C020952E2301C02E2B2C938C
:1003E0008FBF0895CF93DF9390E0FC01E057FF4F5C
:1003F0002491FC01E458FF4F8491882361F190E03F
:10040000880F991FFC01E859FF4FC591D491FC0159
:10041000EE58FF4FA591B491611109C09FB7F894B0
:100420008881209582238883EC912E230BC0623033
:1004300061F49FB7F8943881822F80958323888355
:10044000EC912E2B2C939FBF06C08FB7F894E881B8
:100450002E2B28838FBFDF91CF9108953FB7F8945B
:1004600080913D0190913E01A0913F01B0914001EA
:1004700026B5A89B05C02F3F19F00196A11DB11DFF
:100480003FBFBA2FA92F982F8827820F911DA11D3A
:10049000B11DBC01CD0142E0660F771F881F991F77
:1004A0004A95D1F708958F929F92AF92BF92CF92C3
:1004B000DF92EF92FF926B017C010E942E024B01B2
:1004C0005C01C114D104E104F104F1F00E942E0298
:1004D000DC01CB0188199909AA09BB09883E934020
:1004E000A105B10570F321E0C21AD108E108F108B5
:1004F00088EE880E83E0981EA11CB11CC114D104A3
:10050000E104F10419F7DDCFFF90EF90DF90CF9079
:10051000BF90AF909F908F900895CF93DF93EC01A1
:1005200060E08E810E94A60161E08E810E94A6019A
:1005300060E08E810E94A6018BE891E00197F1F7BF
:10054000DF91CF910895CF92DF92EF92FF920F93B8
:100550001F93CF93DF937C016C0187E0C80ED11C01
:10056000C0E0D0E0062F10E0B8010C2E02C0759557
:1005700067950A94E2F76170F60181916F010E941C
:10058000A6012196C430D10579F7C701DF91CF913B
:100590001F910F91FF90EF90DF90CF900C948D0200
:1005A000CF92DF92EF92FF920F931F93CF93DF933F
:1005B000EC01F62E642F8C810E94A6018D818F3F65
:1005C00019F060E00E94A6018F850F2D10E084FFD6
:1005D00025C06E0187E0C80ED11CE12CF12CB801BA
:1005E0000E2C02C0759567950A94E2F76170F601CA
:1005F00081916F010E94A601FFEFEF1AFF0A88E0C8
:10060000E816F10461F7CE01DF91CF911F910F91B0
:10061000FF90EF90DF90CF900C948D02B80184E0B2
:10062000759567958A95E1F7CE010E94A3026F2D1B
:10063000CE01DF91CF911F910F91FF90EF90DF904E
:10064000CF900C94A30241E00E94D00281E090E0A0
:10065000089540E00C94D0020E94080861157105CD
:1006600079F0FB0101900020E9F73197AF01461BBB
:10067000570BDC01ED91FC910280F381E02D099490
:1006800080E090E008954F925F926F927F92EF9298
:10069000FF920F931F93CF93DF93CDB7DEB7A19750
:1006A0000FB6F894DEBF0FBECDBF7C01FA01CB01BF
:1006B00019A2223008F42AE08E010F5D1F4F422E4E
:1006C000512C612C712CBF01A30192010E943109B0
:1006D000F901CA01015011096A3014F4605D01C0CA
:1006E000695CD8016C93232B242B252B61F7B8016F
:1006F000C7010E942E03A1960FB6F894DEBF0FBE6D
:10070000CDBFDF91CF911F910F91FF90EF907F9020
:100710006F905F904F9008951F920F920FB60F92B7
:1007200011242F933F934F935F936F937F938F93F6
:100730009F93AF93BF93EF93FF938CE791E00E9459
:100740001201FF91EF91BF91AF919F918F917F9196
:100750006F915F914F913F912F910F900FBE0F902E
:100760001F9018951F920F920FB60F9211242F937E
:100770008F939F93EF93FF93E0918C01F0918D0104
:100780008081E0919201F091930182FD12C09081ED
:10079000809195018F5F8F7320919601821751F0A0
:1007A000E0919501F0E0E458FE4F958F809395011C
:1007B00001C08081FF91EF919F918F912F910F90B8
:1007C0000FBE0F901F9018951F920F920FB60F92A9
:1007D00011242F933F938F939F93AF93BF93809157
:1007E000410190914201A0914301B09144013091A7
:1007F0003C0123E0230F2D3720F40196A11DB11DEC
:1008000005C026E8230F0296A11DB11D20933C01CF
:100810008093410190934201A0934301B09344011E
:1008200080913D0190913E01A0913F01B091400126
:100830000196A11DB11D80933D0190933E01A093AF
:100840003F01B0934001BF91AF919F918F913F9134
:100850002F910F900FBE0F901F901895CF93DF939D
:1008600010927F0110927E0188EE93E0A0E0B0E04C
:100870008093800190938101A0938201B0938301C2
:1008800084E091E090937D0180937C0185EC90E081
:10089000909389018093880184EC90E090938B0180
:1008A00080938A0180EC90E090938D0180938C017D
:1008B00081EC90E090938F0180938E0182EC90E028
:1008C000909391018093900186EC90E09093930136
:1008D00080939201109295011092960110929701C7
:1008E0001092980110921C0210921B0284E191E078
:1008F00090931A02809319028CE080931D028FEF6F
:1009000080931E028BE080931F0285E0809320027B
:1009100084E08093210283E08093220282E080932E
:1009200023021092240210922502109226021092A5
:1009300027021092280281E080932C0210922D024F
:1009400080E480932E0280E180932F0280E58093E3
:10095000300261E08CE00E94F20180911E028F3F24
:1009600019F061E00E94F20161E080911F020E9493
:10097000F201C0E0D0E08091280284FD03C084E051
:1009800090E002C088E090E0C817D9074CF4FE015F
:10099000E75EFD4F61E087810E94F2012196EBCF77
:1009A0008BE39DE00197F1F760E080911D020E94CA
:1009B000A60160E080911F020E94A60180911E02A4
:1009C0008F3F19F060E00E94A6016091280264FD4B
:1009D00020C063E089E192E00E94A302CBE4D6E468
:1009E000CE010197F1F763E089E192E00E94A30252
:1009F0002197F1F763E089E192E00E94A30283E589
:100A000092E00197F1F762E089E192E00E94A3028F
:100A10001BC0606289E192E00E9429038BE496E4A6
:100A20000197F1F760912802606289E192E00E94EB
:100A3000290383E592E00197F1F760912802606253
:100A400089E192E00E94290360912802606289E1B5
:100A500092E00E94290384E0809329026CE089E1FE
:100A600092E00E94290361E089E192E00E9429035B
:100A70008BE39FE10197F1F782E080932A0266E021
:100A800089E192E0DF91CF910C942903789484B5A9
:100A9000826084BD84B5816084BD85B5826085BD7A
:100AA00085B5816085BD80916E00816080936E0008
:100AB00010928100809181008260809381008091FA
:100AC00081008160809381008091800081608093AB
:100AD00080008091B10084608093B1008091B0006B
:100AE00081608093B00080917A00846080937A0066
:100AF00080917A00826080937A0080917A00816090
:100B000080937A0080917A00806880937A001092B6
:100B1000C100109278011092790110927A0110921E
:100B20007B011092460110924701109248011092E9
:100B3000490160ED77E080E090E00E9453028CE78D
:100B400091E090937701809376010E9487002FB700
:100B5000F8948091410190914201A0914301B0919C
:100B600044012FBF409146015091470160914801D7
:100B700070914901841B950BA60BB70B8197A105BA
:100B8000B10538F463E070E080E090E00E94530229
:100B9000DECF2FB7F8948091410190914201A0914E
:100BA0004301B09144012FBF8093460190934701C8
:100BB000A0934801B093490168E171E0809176010A
:100BC000909177010E942E036AE070E080E090E04F
:100BD0000E94530281E080934A0160E08EE00E940F
:100BE000F2010E94870010E4CBE3DFE110937C0068
:100BF00080917A00806480937A0080917A0086FDEB
:100C0000FCCF609178008091790070E0782B072EFE
:100C1000000C880B990B0E9414082AE038E240EA85
:100C20005BE30E94730820E030E64AEE55E40E9440
:100C30005D0720E03CE742E157E40E9473086B0146
:100C40007C014B015C0161E089E192E00E94290393
:100C5000CE010197F1F7A7019601C701B6010E94E5
:100C60000308882319F06AE271E01AC026013701EF
:100C7000E89477F82FEF3FEF4FE75FE7C301B2014A
:100C80000E940308811111C02FEF3FEF4FE75FE78C
:100C9000C301B2010E940D0818163CF46EE271E027
:100CA00089E192E00E942E0386C02FEF3FEF4FE7CD
:100CB0005FE4C701B6010E94FE0718161CF462E348
:100CC00071E0EECF2FEF3FEF4FE75FECC701B601CA
:100CD0000E940D0887FDF3CF20E030E0A901C70195
:100CE000B6010E940D0887FF11C0E0911902F09132
:100CF0001A020190F081E02D6DE289E192E0099500
:100D000046015701B7FAB094B7F8B0942AE037ED2E
:100D100043EA5BE3C501B4010E94F1064B015C01AB
:100D20000E94CF076B017C010E9412089B01AC015D
:100D3000C501B4010E94F0064B015C012AE0B70135
:100D4000A60189E192E00E94430366E371E089E134
:100D500092E00E942E0320E030E040E251E4C50121
:100D6000B4010E9473084B015C010E94CF076B0124
:100D7000E12CF12C2AE0B701A60189E192E00E9462
:100D80004303C701B6010E9412089B01AC01C501D3
:100D9000B4010E94F00620E030E040E251E40E94FD
:100DA00073080E94CF07AB0160E070E02AE089E1A0
:100DB00092E00E94430368E371E089E192E00E94BF
:100DC0002E0368EE73E080E090E00E9453020E94E0
:100DD0009C010CCFEE0FFF1F0590F491E02D0994BC
:100DE0005058BB27AA270E9408070C94F7080E94B6
:100DF000E90838F00E94F00820F039F49F3F19F418
:100E000026F40C94E6080EF4E095E7FB0C94E00859
:100E1000E92F0E94080958F3BA176207730784077D
:100E2000950720F079F4A6F50C942A090EF4E095C4
:100E30000B2EBA2FA02D0B01B90190010C01CA0194
:100E4000A0011124FF27591B99F0593F50F4503E3F
:100E500068F11A16F040A22F232F342F4427585F31
:100E6000F3CF469537952795A795F0405395C9F749
:100E70007EF41F16BA0B620B730B840BBAF0915001
:100E8000A1F0FF0FBB1F661F771F881FC2F70EC0A0
:100E9000BA0F621F731F841F48F487957795679573
:100EA000B795F7959E3F08F0B0CF9395880F08F05F
:100EB0009927EE0F9795879508950E9471070C94D6
:100EC000F7080E94F00858F00E94E90840F029F461
:100ED0005F3F29F00C94E00851110C942B090C94FD
:100EE000E6080E94080968F39923B1F3552391F3AA
:100EF000951B550BBB27AA2762177307840738F089
:100F00009F5F5F4F220F331F441FAA1FA9F335D0E5
:100F10000E2E3AF0E0E832D091505040E695001C99
:100F2000CAF72BD0FE2F29D0660F771F881FBB1F53
:100F3000261737074807AB07B0E809F0BB0B802D31
:100F4000BF01FF2793585F4F3AF09E3F510578F05D
:100F50000C94E0080C942B095F3FE4F3983ED4F323
:100F6000869577956795B795F7959F5FC9F7880F31
:100F7000911D9695879597F90895E1E0660F771F83
:100F8000881FBB1F621773078407BA0720F0621B14
:100F9000730B840BBA0BEE1F88F7E09508950E943F
:100FA000100988F09F5798F0B92F9927B751B0F0E2
:100FB000E1F0660F771F881F991F1AF0BA95C9F7DD
:100FC00014C0B13091F00E942A09B1E008950C9448
:100FD0002A09672F782F8827B85F39F0B93FCCF3FB
:100FE000869577956795B395D9F73EF4909580955A
:100FF000709561957F4F8F4F9F4F08950E944F08C6
:1010000008F48FEF08950E944F08880B990B0895FC
:1010100081E090E0F8940C9453090E944F0808F482
:1010200081E00895E89409C097FB3EF4909580957F
:10103000709561957F4F8F4F9F4F9923A9F0F92F9E
:1010400096E9BB279395F695879577956795B7951C
:10105000F111F8CFFAF4BB0F11F460FF1BC06F5F02
:101060007F4F8F4F9F4F16C0882311F096E911C014
:10107000772321F09EE8872F762F05C0662371F035
:1010800096E8862F70E060E02AF09A95660F771F49
:10109000881FDAF7880F9695879597F90895990F25
:1010A0000008550FAA0BE0E8FEEF16161706E80732
:1010B000F907C0F012161306E407F50798F0621B53
:1010C000730B840B950B39F40A2661F0232B242B28
:1010D000252B21F408950A2609F4A140A6958FEF47
:1010E000811D811D08950E9486080C94F7080E94B6
:1010F000E90838F00E94F00820F0952311F00C94D4
:10110000E0080C94E60811240C942B090E940809AD
:1011100070F3959FC1F3950F50E0551F629FF0014A
:10112000729FBB27F00DB11D639FAA27F00DB11D63
:10113000AA1F649F6627B00DA11D661F829F2227EC
:10114000B00DA11D621F739FB00DA11D621F839F73
:10115000A00D611D221F749F3327A00D611D231F49
:10116000849F600D211D822F762F6A2F11249F5797
:1011700050409AF0F1F088234AF0EE0FFF1FBB1F9A
:10118000661F771F881F91505040A9F79E3F510559
:1011900080F00C94E0080C942B095F3FE4F3983E38
:1011A000D4F3869577956795B795F795E7959F5F03
:1011B000C1F7FE2B880F911D9695879597F9089595
:1011C00097F99F6780E870E060E008959FEF80ECFA
:1011D000089500240A94161617061806090608959D
:1011E00000240A9412161306140605060895092E03
:1011F0000394000C11F4882352F0BB0F40F4BF2B72
:1012000011F460FF04C06F5F7F4F8F4F9F4F0895B1
:1012100057FD9058440F551F59F05F3F71F04795A7
:10122000880F97FB991F61F09F3F79F0879508958C
:10123000121613061406551FF2CF4695F1DF08C0AB
:10124000161617061806991FF1CF869571056105C8
:1012500008940895E894BB2766277727CB0197F970
:101260000895A1E21A2EAA1BBB1BFD010DC0AA1FE7
:10127000BB1FEE1FFF1FA217B307E407F50720F0FF
:10128000A21BB30BE40BF50B661F771F881F991F7A
:101290001A9469F760957095809590959B01AC01C3
:0A12A000BD01CF010895F894FFCFBF
:1012AA00000000003301AF00FC00DA00EE007A0112
:1012BA00000000002303AF00564D4450565F317CB6
:1012CA00315F564D4450560D0A006E616E00696ECC
:0C12DA0066006F7666002E0020560000B3
:00000001FF
