:100000000C9453000C947B000C947B000C947B00AC
:100010000C947B000C947B000C947B000C947B0074
:100020000C947B000C947B000C947B000C947B0064
:100030000C947B000C947B000C947B000C947B0054
:100040000C94B1020C947B000C947F020C94590226
:100050000C947B000C947B000C947B000C947B0034
:100060000C94FB020C947B0000000000250028008B
:100070002B0000000000240027002A0004040404D0
:100080000404040402020202020203030303030342
:10009000010204081020408001020408102001021F
:1000A00004081020290411241FBECFEFD8E0DEBFC2
:1000B000CDBF11E0A0E0B1E0E6E5FBE002C00590B5
:1000C0000D92A233B107D9F722E0A2E3B1E001C05B
:1000D0001D92AA3BB207E1F710E0C3E5D0E004C0EF
:1000E0002197FE010E949E05C235D107C9F70E94E3
:1000F000BA040C94A9050C94000090E0FC01E057B0
:10010000FF4F2491FC01E458FF4F8491882399F01C
:1001100090E0880F991FFC01EE58FF4FA591B49114
:10012000FC01E859FF4F859194918FB7F894EC91B9
:10013000E22BEC938FBF0895CF92DF92EF92FF9264
:100140000F931F93CF93DF936C017A018B01C0E073
:10015000D0E0CE15DF0589F0D8016D918D01D60173
:10016000ED91FC910190F081E02DC6010995892B5C
:1001700011F47E0102C02196ECCFC701DF91CF912F
:100180001F910F91FF90EF90DF90CF900895FC01A9
:10019000918D828D981761F0828DDF01A80FB11DBE
:1001A0005D968C91928D9F5F9F73928F90E00895E2
:1001B0008FEF9FEF0895FC01918D828D981731F09C
:1001C000828DE80FF11D858D90E008958FEF9FEFF0
:1001D0000895FC01918D228D892F90E0805C9F4FC6
:1001E000821B91098F739927089581EE91E00E94F7
:1001F000E90021E0892B09F420E0822F0895FC0119
:10020000848DDF01A80FB11DA35ABF4F2C91848D9F
:1002100090E001968F739927848FA689B7892C93D4
:10022000A089B1898C9180648C93938D848D98136F
:1002300006C00288F389E02D80818F7D8083089538
:10024000EF92FF920F931F93CF93DF93EC0181E026
:10025000888F9B8D8C8D981305C0E889F9898081E2
:1002600085FD24C0F62E0B8D10E00F5F1F4F0F731E
:100270001127E02E8C8DE8120CC00FB607FCFACFC8
:10028000E889F989808185FFF5CFCE010E94FF00C2
:10029000F1CF8B8DFE01E80FF11DE35AFF4FF08285
:1002A0000B8FEA89FB898081806207C0EE89FF8914
:1002B0006083E889F98980818064808381E090E0AF
:1002C000DF91CF911F910F91FF90EF900895CF9301
:1002D000DF93EC01888D8823C9F0EA89FB8980814E
:1002E00085FD05C0A889B9898C9186FD0FC00FB620
:1002F00007FCF5CF808185FFF2CFA889B9898C9161
:1003000085FFEDCFCE010E94FF00E7CFDF91CF91B7
:10031000089580E090E0892B29F00E94F50081117A
:100320000C94000008953FB7F8948091A201909139
:10033000A301A091A401B091A50126B5A89B05C079
:100340002F3F19F00196A11DB11D3FBFBA2FA92F54
:10035000982F8827820F911DA11DB11DBC01CD01D1
:1003600042E0660F771F881F991F4A95D1F70895BD
:100370008F929F92AF92BF92CF92DF92EF92FF92B5
:100380006B017C010E9493014B015C01C114D104FB
:10039000E104F104F1F00E949301DC01CB01881922
:1003A0009909AA09BB09883E9340A105B10570F3DC
:1003B00021E0C21AD108E108F10888EE880E83E036
:1003C000981EA11CB11CC114D104E104F10419F759
:1003D000DDCFFF90EF90DF90CF90BF90AF909F90D8
:1003E0008F90089585ED8093BC008091BC0084FDC2
:1003F000FCCF10927B01089540915501262F30E0EB
:10040000240F311D21323105DCF420917B01243091
:10041000C9F4FC0180E090E0861758F43091550152
:100420002191DC01AD5CBE4FA30FB11D2C93019651
:10043000F3CF80915501680F6093550180E00895D6
:1004400081E0089582E0089508958FEF9FEF089569
:100450008FEF9FEF08958091320190E09195819503
:1004600091090895CF93DF9300D0CDB7DEB7CB01CC
:10047000642F49835A830E94FC014981842F5A8149
:10048000952F0F900F90DF91CF910895CF93DF9329
:100490001F92CDB7DEB7698361E0CE0101960E945D
:1004A000FC0181E090E00F90DF91CF9108950E94D0
:1004B000A4051F920F920FB60F9211242F933F9312
:1004C0004F935F936F937F938F939F93AF93BF935C
:1004D000EF93FF9381EE91E00E94FF00FF91EF9177
:1004E000BF91AF919F918F917F916F915F914F914C
:1004F0003F912F910F900FBE0F901F9018951F9254
:100500000F920FB60F9211242F938F939F93EF9317
:10051000FF93E091F101F091F2018081E091F70108
:10052000F091F80182FD12C090818091FA018F5FF5
:100530008F732091FB01821751F0E091FA01F0E0F6
:10054000EF51FE4F958F8093FA0101C08081FF919A
:10055000EF919F918F912F910F900FBE0F901F9051
:1005600018951F920F920FB60F9211242F933F935D
:100570008F939F93AF93BF938091A6019091A70112
:10058000A091A801B091A9013091A10123E0230F0E
:100590002D3720F40196A11DB11D05C026E8230FBB
:1005A0000296A11DB11D2093A1018093A6019093F5
:1005B000A701A093A801B093A9018091A2019091F5
:1005C000A301A091A401B091A5010196A11DB11DA7
:1005D0008093A2019093A301A093A401B093A501DD
:1005E000BF91AF919F918F913F912F910F900FBE2F
:1005F0000F901F9018951F920F920FB60F92112413
:100600002F933F934F935F936F937F938F939F931A
:10061000AF93BF93EF93FF938091B900887F8036AB
:1006200009F49CC068F5883209F45BC090F480310D
:1006300009F454C038F4882309F4F6C0883009F46A
:100640004DC0F6C0883109F44CC0803209F45DC059
:10065000EFC0803409F468C048F4803309F455C011
:10066000883309F0E5C080937A01D8C0803509F459
:100670004FC0883509F45DC0883409F0D9C0D6C0B0
:10068000883909F4C7C0A8F4883709F467C038F47A
:10069000883609F463C0803709F460C0C9C088385F
:1006A00009F4B8C0803909F45FC0803809F0C0C0CF
:1006B0005BC0803B09F486C038F4803A09F466C018
:1006C000883A09F47FC0B4C0803C09F4A7C0883CD4
:1006D00009F4A4C0883B09F48AC0AAC08091A00193
:1006E00010C090919F0180919E01981770F5E09144
:1006F0009F0181E08E0F80939F01F0E0E258FE4F52
:1007000080818093BB0085EC86C080937A018EC087
:10071000E0919F0181E08E0F80939F018091BB004B
:10072000F0E0E258FE4F808390919F0180919E01FE
:100730006EC0E0919F0181E08E0F80939F018091B8
:10074000BB00F0E0E258FE4F808380917D01811173
:100750006DC081E080937C0184EA61C083E0809376
:100760007B0110927901CFCF80917901803208F01E
:1007700051C0E091790181E08E0F809379018091E1
:10078000BB00F0E0E75AFE4F8083BDCF85EC80933D
:10079000BC0010927B0180917901803230F4E091AD
:1007A0007901F0E0E75AFE4F10826091790170E024
:1007B000E0915701F091580189E591E00995109277
:1007C000790136C084E080937B011092560110922B
:1007D0005501E0915301F091540109958091550123
:1007E000811105C081E08093550110923301E091A1
:1007F000560181E08E0F80935601F0E0ED5CFE4FD4
:1008000080818093BB00909156018091550198178B
:1008100008F479CF85E88093BC000AC085EC80930A
:10082000BC0010927B0104C010927A010E94F20178
:10083000FF91EF91BF91AF919F918F917F916F91B8
:100840005F914F913F912F910F900FBE0F901F908E
:100850001895E1EEF1E01382128288EE93E0A0E0B9
:10086000B0E084839583A683B78324E031E03183AD
:10087000208325EC30E03587248724EC30E037876F
:10088000268720EC30E0318B208B21EC30E0338B5D
:10089000228B22EC30E0358B248B26EC30E0378B3A
:1008A000268B118E128E138E148EEEE7F2E01382D9
:1008B000128284839583A683B78384E191E0918338
:1008C000808385E00E947D0087E00E947D0086E0B5
:1008D0000E947D0082E00E947D0084E00E947D00F5
:1008E00083E00E947D00E2EAF2E087E090E09183FD
:1008F000808386E090E09383828385E090E0958317
:10090000848382E090E09783868384E090E09187FF
:10091000808783E090E0938782878BE00E947D0050
:100920008CE00E947D008DE00E947D0088E00E94A6
:100930007D008AE00E947D0089E00E947D00EAE857
:10094000F2E08CE090E0918380838DE090E09383EF
:1009500082838BE090E09583848388E090E09783A6
:1009600086838AE090E09187808789E090E0938792
:1009700082870895789484B5826084BD84B581604F
:1009800084BD85B5826085BD85B5816085BD80915A
:100990006E00816080936E001092810080918100D2
:1009A00082608093810080918100816080938100CA
:1009B000809180008160809380008091B10084608C
:1009C0008093B1008091B00081608093B0008091ED
:1009D0007A00846080937A0080917A0082608093AC
:1009E0007A0080917A00816080937A0080917A0009
:1009F000806880937A001092C1001092DD011092FD
:100A0000DE011092DF011092E0011092AB01109212
:100A1000AC011092AD011092AE0160ED77E080E084
:100A200090E00E94B80181EE91E09093DC01809308
:100A3000DB01E091F101F091F20182E08083E0912D
:100A4000ED01F091EE011082E091EF01F091F001E3
:100A500080E180831092F901E091F501F091F601B7
:100A600086E08083E091F301F091F4018081806160
:100A70008083E091F301F091F401808188608083AC
:100A8000E091F301F091F401808180688083E0912E
:100A9000F301F091F40180818F7D80832FB7F8946A
:100AA0008091A6019091A701A091A801B091A90100
:100AB0002FBF4091AB015091AC016091AD0170919D
:100AC000AE01841B950BA60BB70B8197A105B10551
:100AD00038F463E070E080E090E00E94B801DECF7F
:100AE0002FB7F8948091A6019091A701A091A80139
:100AF000B091A9012FBF8093AB019093AC01A0935B
:100B0000AD01B093AE018091DB019091DC01DC017D
:100B1000ED91FC910280F381E02D41E150E060E233
:100B200071E009956AE070E080E090E00E94B80111
:100B300081E08093AF010E948901FDCFEE0FFF1F7E
:100B40000590F491E02D099481E090E0F8940C94E4
:060B5000A905F894FFCF97
:100B56000000000020019C00E900C700DB006701DF
:100B660000000000460232022B022802250224025F
:100B7600564D4450565F317C315F564D4450560DAC
:020B86000A0063
:00000001FF
